{
  "contractName": "Medianizer",
  "abi": [
    {
      "constant": true,
      "inputs": [],
      "name": "read",
      "outputs": [
        {
          "internalType": "bytes32",
          "name": "",
          "type": "bytes32"
        }
      ],
      "payable": false,
      "stateMutability": "pure",
      "type": "function"
    }
  ],
  "bytecode": "0x6080604052348015600f57600080fd5b5060928061001e6000396000f3fe6080604052348015600f57600080fd5b506004361060285760003560e01c806357de26a414602d575b600080fd5b60336049565b6040518082815260200191505060405180910390f35b6000680ad78ebc5ac620000060001b90509056fea265627a7a72315820033bd19d6e94ce34a7ffbdc0503a1224b0d3bca83eb39a282dd72d7f6eb183e364736f6c634300050b0032",
  "source": "// This is a mock implementation of the MakerDAO medianizer contract. It has the\n// same interfaces as the publicly deployed contracts that can be found here:\n//1) kovan: https://kovan.etherscan.io/address/0x9FfFE440258B79c5d6604001674A4722FfC0f7Bc#code\n//2) mainnet: https://etherscan.io/address/0x729D19f657BD0614b4985Cf1D82531c67569197B#readContract\n// To get the ether price in USD as a bytes32 from the medianizer you must call the\n// read() function. This functions implementation has been changed in the mock to return\n// a value of 200 usd/ether for testing purposes. The rest of the contract and it's logic\n// has been left the same.\n\n/// return median value of feeds\n\npragma solidity^0.5.3;\n\ncontract Medianizer {\n    function read() public pure returns (bytes32) {\n        return bytes32(uint256(200 ether));\n    }  \n}",
  "sourcePath": "/Users/chris/Projects/DaiDaddy/contracts/mocks/Medianizer.sol",
  "compiler": {
    "name": "solc",
    "version": "0.5.11+commit.c082d0b4.Emscripten.clang",
    "optimizer": false,
    "runs": 200
  },
  "schemaVersion": "2.2.3",
  "updatedAt": "2019-10-26T10:59:26.945Z"
}