{
  "contractName": "Unwinder",
  "abi": [
    {
      "constant": true,
      "inputs": [],
      "name": "saiTubContract",
      "outputs": [
        {
          "internalType": "contract SaiTub",
          "name": "",
          "type": "address"
        }
      ],
      "payable": false,
      "stateMutability": "view",
      "type": "function"
    },
    {
      "constant": true,
      "inputs": [],
      "name": "medianizerContract",
      "outputs": [
        {
          "internalType": "contract Medianizer",
          "name": "",
          "type": "address"
        }
      ],
      "payable": false,
      "stateMutability": "view",
      "type": "function"
    },
    {
      "inputs": [
        {
          "internalType": "address",
          "name": "_saiTubAddress",
          "type": "address"
        },
        {
          "internalType": "address",
          "name": "_medianizerAddress",
          "type": "address"
        }
      ],
      "payable": false,
      "stateMutability": "nonpayable",
      "type": "constructor"
    },
    {
      "constant": true,
      "inputs": [
        {
          "internalType": "uint256",
          "name": "a",
          "type": "uint256"
        },
        {
          "internalType": "uint256",
          "name": "m",
          "type": "uint256"
        }
      ],
      "name": "ceil",
      "outputs": [
        {
          "internalType": "uint256",
          "name": "",
          "type": "uint256"
        }
      ],
      "payable": false,
      "stateMutability": "pure",
      "type": "function"
    },
    {
      "constant": true,
      "inputs": [
        {
          "internalType": "uint256",
          "name": "ink",
          "type": "uint256"
        },
        {
          "internalType": "uint256",
          "name": "ire",
          "type": "uint256"
        },
        {
          "internalType": "uint256",
          "name": "etherPrice",
          "type": "uint256"
        },
        {
          "internalType": "uint256",
          "name": "wpRatio",
          "type": "uint256"
        }
      ],
      "name": "collateralizationRatio",
      "outputs": [
        {
          "internalType": "uint256",
          "name": "",
          "type": "uint256"
        }
      ],
      "payable": false,
      "stateMutability": "pure",
      "type": "function"
    },
    {
      "constant": true,
      "inputs": [
        {
          "internalType": "uint256",
          "name": "cr",
          "type": "uint256"
        }
      ],
      "name": "unwindsNeeded",
      "outputs": [
        {
          "internalType": "uint256",
          "name": "",
          "type": "uint256"
        }
      ],
      "payable": false,
      "stateMutability": "pure",
      "type": "function"
    },
    {
      "constant": true,
      "inputs": [
        {
          "internalType": "uint256",
          "name": "ink",
          "type": "uint256"
        },
        {
          "internalType": "uint256",
          "name": "ire",
          "type": "uint256"
        },
        {
          "internalType": "uint256",
          "name": "etherPrice",
          "type": "uint256"
        },
        {
          "internalType": "uint256",
          "name": "wpRatio",
          "type": "uint256"
        }
      ],
      "name": "freeableCollateral",
      "outputs": [
        {
          "internalType": "uint256",
          "name": "",
          "type": "uint256"
        }
      ],
      "payable": false,
      "stateMutability": "view",
      "type": "function"
    },
    {
      "constant": true,
      "inputs": [
        {
          "internalType": "uint256",
          "name": "_etherToSell",
          "type": "uint256"
        }
      ],
      "name": "ethToDaiGetKyberPrice",
      "outputs": [
        {
          "internalType": "uint256",
          "name": "",
          "type": "uint256"
        }
      ],
      "payable": false,
      "stateMutability": "pure",
      "type": "function"
    }
  ],
  "bytecode": "0x60806040526714f498ffead7000060005534801561001c57600080fd5b506040516104ea3803806104ea8339818101604052604081101561003f57600080fd5b81019080805190602001909291908051906020019092919050505081600160006101000a81548173ffffffffffffffffffffffffffffffffffffffff021916908373ffffffffffffffffffffffffffffffffffffffff16021790555080600260006101000a81548173ffffffffffffffffffffffffffffffffffffffff021916908373ffffffffffffffffffffffffffffffffffffffff16021790555050506103fd806100ed6000396000f3fe608060405234801561001057600080fd5b506004361061007d5760003560e01c8063b967e9c11161005b578063b967e9c11461015a578063e5293973146101ba578063f2b704f9146101fc578063fa24d1411461025c5761007d565b80634019693a146100825780638587be6e146100c457806397a8d81d14610110575b600080fd5b6100ae6004803603602081101561009857600080fd5b81019080803590602001909291905050506102a6565b6040518082815260200191505060405180910390f35b6100fa600480360360408110156100da57600080fd5b8101908080359060200190929190803590602001909291905050506102b3565b6040518082815260200191505060405180910390f35b6101186102ce565b604051808273ffffffffffffffffffffffffffffffffffffffff1673ffffffffffffffffffffffffffffffffffffffff16815260200191505060405180910390f35b6101a46004803603608081101561017057600080fd5b81019080803590602001909291908035906020019092919080359060200190929190803590602001909291905050506102f4565b6040518082815260200191505060405180910390f35b6101e6600480360360208110156101d057600080fd5b8101908080359060200190929190505050610323565b6040518082815260200191505060405180910390f35b6102466004803603608081101561021257600080fd5b8101908080359060200190929190803590602001909291908035906020019092919080359060200190929190505050610379565b6040518082815260200191505060405180910390f35b6102646103a2565b604051808273ffffffffffffffffffffffffffffffffffffffff1673ffffffffffffffffffffffffffffffffffffffff16815260200191505060405180910390f35b600060a682029050919050565b60008182600184860103816102c457fe5b0402905092915050565b600160009054906101000a900473ffffffffffffffffffffffffffffffffffffffff1681565b60008260005485028161030357fe5b04670de0b6b3a76400008387028161031757fe5b04039050949350505050565b6000806714d1120d7b16000083036ec097ce7bc90715b34b9f10000000008161034857fe5b049050612710610369655af3107a4000838161036057fe5b046127106102b3565b8161037057fe5b04915050919050565b600080670de0b6b3a7640000850283858802028161039357fe5b04905080915050949350505050565b600260009054906101000a900473ffffffffffffffffffffffffffffffffffffffff168156fea265627a7a72315820bd3cfe2735235fac26e3665568fe231414910c1e18365ae5819121991f80d34164736f6c634300050b0032",
  "source": "pragma solidity^0.5.3;\n\n/// @title DaiDaddy 2.0: Pay back your debt by unwinding your CDP\n/// @author Chris Maree\n\nimport \"./mocks/tub.sol\";\nimport \"./mocks/Medianizer.sol\";\n\ncontract Unwinder {\n    \n    // constants\n    uint256 safeNoLiquidationRatio = 151 * 10 ** 16;  // a value of 1.51, just above the liquidation amount of a CDP\n    \n    // contract instances\n    SaiTub public saiTubContract;\n    Medianizer public medianizerContract;\n\n    constructor(address _saiTubAddress, address _medianizerAddress) public {\n        saiTubContract = SaiTub(_saiTubAddress);\n        medianizerContract = Medianizer(_medianizerAddress);\n    }\n\n    // round number a to b decimal points\n    function ceil(uint a, uint m) public pure returns (uint ) {\n        return ((a + m - 1) / m) * m;\n    }\n    \n    // takes in all the information about a CDP and returns the current collateralization ratio scaled *10 ^ 18\n    // uint256  ink             Locked collateral (in Weth)\n    // uint256  ire             Outstanding normalised debt(including tax)\n    // uint256  etherPrice      Current ether Price\n    // uint256  wpRatio         Weth to Peth Ratio\n    function collateralizationRatio(uint256 ink, uint256 ire ,uint256 etherPrice, uint256 wpRatio) public pure returns (uint256) {\n        uint256 cr = (ink * etherPrice * wpRatio) / (ire * 10 ** 18);\n        return cr;\n    }\n    \n    // returns an interger representing how many unwinds are needed for a given collateralization ratio. The use of\n    // the ceil function and the scaling is to act as a round up \n    function unwindsNeeded(uint256 cr) public pure returns(uint256){\n        //1.5 here represents the collateralization ratio needed to not get liquidated as a CDP on makerDao\n        uint256 repaymentsNeeded = (1 * 10 ** (18 * 2)) / (cr - 1.5 * 10 ** 18); \n        return ceil(repaymentsNeeded / (10 ** 14), 10000) / 10000;\n    }\n    \n    function freeableCollateral(uint256 ink, uint256 ire, uint256 etherPrice, uint256 wpRatio) public view returns (uint256) {\n        return (ink * wpRatio)/ (10 ** 18) - (ire * safeNoLiquidationRatio) / etherPrice;\n    }\n    \n    // See how much Dai can be gained from trading against keyber for the freed Ether\n    function ethToDaiGetKyberPrice(uint256 _etherToSell) public pure returns (uint256) {\n        // kyberNetworkProxyContract.getExpectedRate(0xeeeeeeeeeeeeeeeeeeeeeeeeeeeeeeeeeeeeeeee, 0x89d24a6b4ccb1b6faa2625fe562bdd9a23260359, _etherToSell);\n        return _etherToSell * 166;\n    }\n}\n\n",
  "sourcePath": "/Users/chris/Projects/DaiDaddy/contracts/Unwinder.sol",
  "compiler": {
    "name": "solc",
    "version": "0.5.11+commit.c082d0b4.Emscripten.clang",
    "optimizer": false,
    "runs": 200
  },
  "schemaVersion": "2.2.3",
  "updatedAt": "2019-10-26T10:59:26.945Z"
}