{
  "contractName": "DaiDaddy",
  "abi": [
    {
      "constant": true,
      "inputs": [
        {
          "name": "",
          "type": "uint256"
        }
      ],
      "name": "debtBook",
      "outputs": [
        {
          "name": "cupId",
          "type": "bytes32"
        },
        {
          "name": "seller",
          "type": "address"
        },
        {
          "name": "buyer",
          "type": "address"
        },
        {
          "name": "discount",
          "type": "uint256"
        },
        {
          "name": "status",
          "type": "uint8"
        }
      ],
      "payable": false,
      "stateMutability": "view",
      "type": "function"
    },
    {
      "constant": true,
      "inputs": [],
      "name": "saiTubContract",
      "outputs": [
        {
          "name": "",
          "type": "address"
        }
      ],
      "payable": false,
      "stateMutability": "view",
      "type": "function"
    },
    {
      "constant": true,
      "inputs": [],
      "name": "medianizerContract",
      "outputs": [
        {
          "name": "",
          "type": "address"
        }
      ],
      "payable": false,
      "stateMutability": "view",
      "type": "function"
    },
    {
      "constant": true,
      "inputs": [],
      "name": "debtItems",
      "outputs": [
        {
          "name": "",
          "type": "uint256"
        }
      ],
      "payable": false,
      "stateMutability": "view",
      "type": "function"
    },
    {
      "inputs": [
        {
          "name": "_saiTubAddress",
          "type": "address"
        },
        {
          "name": "_medianizerAddress",
          "type": "address"
        }
      ],
      "payable": false,
      "stateMutability": "nonpayable",
      "type": "constructor"
    },
    {
      "constant": false,
      "inputs": [
        {
          "name": "_cupId",
          "type": "bytes32"
        },
        {
          "name": "_discount",
          "type": "uint256"
        }
      ],
      "name": "sellCDP",
      "outputs": [],
      "payable": false,
      "stateMutability": "nonpayable",
      "type": "function"
    },
    {
      "constant": false,
      "inputs": [
        {
          "name": "_debtId",
          "type": "uint256"
        }
      ],
      "name": "buyCDP",
      "outputs": [
        {
          "name": "",
          "type": "uint256"
        }
      ],
      "payable": true,
      "stateMutability": "payable",
      "type": "function"
    },
    {
      "constant": false,
      "inputs": [
        {
          "name": "_debtId",
          "type": "uint256"
        }
      ],
      "name": "cancelCDPSale",
      "outputs": [],
      "payable": false,
      "stateMutability": "nonpayable",
      "type": "function"
    },
    {
      "constant": true,
      "inputs": [
        {
          "name": "_debtId",
          "type": "uint256"
        }
      ],
      "name": "debtPositionPriceInEth",
      "outputs": [
        {
          "name": "",
          "type": "uint256"
        }
      ],
      "payable": false,
      "stateMutability": "view",
      "type": "function"
    },
    {
      "constant": true,
      "inputs": [
        {
          "name": "_art",
          "type": "uint256"
        },
        {
          "name": "_ire",
          "type": "uint256"
        },
        {
          "name": "_discount",
          "type": "uint256"
        }
      ],
      "name": "debtPrice",
      "outputs": [
        {
          "name": "",
          "type": "uint256"
        }
      ],
      "payable": false,
      "stateMutability": "pure",
      "type": "function"
    },
    {
      "constant": true,
      "inputs": [],
      "name": "saiTubAddress",
      "outputs": [
        {
          "name": "",
          "type": "address"
        }
      ],
      "payable": false,
      "stateMutability": "view",
      "type": "function"
    },
    {
      "constant": true,
      "inputs": [],
      "name": "getEtherPrice",
      "outputs": [
        {
          "name": "",
          "type": "uint256"
        }
      ],
      "payable": false,
      "stateMutability": "view",
      "type": "function"
    },
    {
      "constant": true,
      "inputs": [
        {
          "name": "_address",
          "type": "address"
        }
      ],
      "name": "getDebtSalesForAddress",
      "outputs": [
        {
          "name": "",
          "type": "uint256[]"
        }
      ],
      "payable": false,
      "stateMutability": "view",
      "type": "function"
    }
  ],
  "bytecode": "0x608060405234801561001057600080fd5b5060405160408061124f8339810180604052604081101561003057600080fd5b81019080805190602001909291908051906020019092919050505081600460006101000a81548173ffffffffffffffffffffffffffffffffffffffff021916908373ffffffffffffffffffffffffffffffffffffffff16021790555080600560006101000a81548173ffffffffffffffffffffffffffffffffffffffff021916908373ffffffffffffffffffffffffffffffffffffffff1602179055505050611171806100de6000396000f3fe6080604052600436106100a75760003560e01c806397a8d81d1161006457806397a8d81d14610349578063ca7c4dba146103a0578063d3d3b776146103cb578063d6f471a51461040d578063fa24d14114610470578063fe8ab8b7146104c7576100a7565b80630b04ae90146100ac5780632806a6c81461015257806335e2937b1461018d5780637cd73dcb1461025e57806380ec0566146102a35780638572c919146102f2575b600080fd5b3480156100b857600080fd5b506100fb600480360360208110156100cf57600080fd5b81019080803573ffffffffffffffffffffffffffffffffffffffff1690602001909291905050506104f2565b6040518080602001828103825283818151815260200191508051906020019060200280838360005b8381101561013e578082015181840152602081019050610123565b505050509050019250505060405180910390f35b34801561015e57600080fd5b5061018b6004803603602081101561017557600080fd5b8101908080359060200190929190505050610589565b005b34801561019957600080fd5b506101c6600480360360208110156101b057600080fd5b8101908080359060200190929190505050610846565b604051808681526020018573ffffffffffffffffffffffffffffffffffffffff1673ffffffffffffffffffffffffffffffffffffffff1681526020018473ffffffffffffffffffffffffffffffffffffffff1673ffffffffffffffffffffffffffffffffffffffff16815260200183815260200182600281111561024657fe5b60ff1681526020019550505050505060405180910390f35b34801561026a57600080fd5b506102a16004803603604081101561028157600080fd5b8101908080359060200190929190803590602001909291905050506108d6565b005b3480156102af57600080fd5b506102dc600480360360208110156102c657600080fd5b8101908080359060200190929190505050610b7e565b6040518082815260200191505060405180910390f35b3480156102fe57600080fd5b50610307610d1b565b604051808273ffffffffffffffffffffffffffffffffffffffff1673ffffffffffffffffffffffffffffffffffffffff16815260200191505060405180910390f35b34801561035557600080fd5b5061035e610d45565b604051808273ffffffffffffffffffffffffffffffffffffffff1673ffffffffffffffffffffffffffffffffffffffff16815260200191505060405180910390f35b3480156103ac57600080fd5b506103b5610d6b565b6040518082815260200191505060405180910390f35b6103f7600480360360208110156103e157600080fd5b8101908080359060200190929190505050610e18565b6040518082815260200191505060405180910390f35b34801561041957600080fd5b5061045a6004803603606081101561043057600080fd5b810190808035906020019092919080359060200190929190803590602001909291905050506110a2565b6040518082815260200191505060405180910390f35b34801561047c57600080fd5b506104856110db565b604051808273ffffffffffffffffffffffffffffffffffffffff1673ffffffffffffffffffffffffffffffffffffffff16815260200191505060405180910390f35b3480156104d357600080fd5b506104dc611101565b6040518082815260200191505060405180910390f35b6060600360008373ffffffffffffffffffffffffffffffffffffffff1673ffffffffffffffffffffffffffffffffffffffff16815260200190815260200160002080548060200260200160405190810160405280929190818152602001828054801561057d57602002820191906000526020600020905b815481526020019060010190808311610569575b50505050509050919050565b3373ffffffffffffffffffffffffffffffffffffffff16600082815481106105ad57fe5b906000526020600020906005020160010160009054906101000a900473ffffffffffffffffffffffffffffffffffffffff1673ffffffffffffffffffffffffffffffffffffffff1614610668576040517f08c379a000000000000000000000000000000000000000000000000000000000815260040180806020018281038252601b8152602001807f4e6f7420796f7572204344502073616c6520746f2063616e63656c000000000081525060200191505060405180910390fd5b6000600281111561067557fe5b6000828154811061068257fe5b906000526020600020906005020160040160009054906101000a900460ff1660028111156106ac57fe5b1461071f576040517f08c379a00000000000000000000000000000000000000000000000000000000081526004018080602001828103825260178152602001807f57726f6e672073656c6c206f726465722073746174757300000000000000000081525060200191505060405180910390fd5b600080828154811061072d57fe5b9060005260206000209060050201600001549050600460009054906101000a900473ffffffffffffffffffffffffffffffffffffffff1673ffffffffffffffffffffffffffffffffffffffff1663baa8529c82336040518363ffffffff1660e01b8152600401808381526020018273ffffffffffffffffffffffffffffffffffffffff1673ffffffffffffffffffffffffffffffffffffffff16815260200192505050600060405180830381600087803b1580156107ea57600080fd5b505af11580156107fe573d6000803e3d6000fd5b5050505060026000838154811061081157fe5b906000526020600020906005020160040160006101000a81548160ff0219169083600281111561083d57fe5b02179055505050565b6000818154811061085357fe5b90600052602060002090600502016000915090508060000154908060010160009054906101000a900473ffffffffffffffffffffffffffffffffffffffff16908060020160009054906101000a900473ffffffffffffffffffffffffffffffffffffffff16908060030154908060040160009054906101000a900460ff16905085565b600460009054906101000a900473ffffffffffffffffffffffffffffffffffffffff1673ffffffffffffffffffffffffffffffffffffffff1663baa8529c83306040518363ffffffff1660e01b8152600401808381526020018273ffffffffffffffffffffffffffffffffffffffff1673ffffffffffffffffffffffffffffffffffffffff16815260200192505050600060405180830381600087803b15801561097f57600080fd5b505af1158015610993573d6000803e3d6000fd5b505050506000600160006040518060a001604052808681526020013373ffffffffffffffffffffffffffffffffffffffff168152602001600073ffffffffffffffffffffffffffffffffffffffff168152602001858152602001600060028111156109fa57fe5b815250908060018154018082558091505090600182039060005260206000209060050201600090919290919091506000820151816000015560208201518160010160006101000a81548173ffffffffffffffffffffffffffffffffffffffff021916908373ffffffffffffffffffffffffffffffffffffffff16021790555060408201518160020160006101000a81548173ffffffffffffffffffffffffffffffffffffffff021916908373ffffffffffffffffffffffffffffffffffffffff1602179055506060820151816003015560808201518160040160006101000a81548160ff02191690836002811115610aee57fe5b02179055505050039050806001600085815260200190815260200160002081905550600360003373ffffffffffffffffffffffffffffffffffffffff1673ffffffffffffffffffffffffffffffffffffffff168152602001908152602001600020819080600181540180825580915050906001820390600052602060002001600090919290919091505550505050565b6000610b88611107565b600460009054906101000a900473ffffffffffffffffffffffffffffffffffffffff1673ffffffffffffffffffffffffffffffffffffffff1663fdac002560008581548110610bd357fe5b9060005260206000209060050201600001546040518263ffffffff1660e01b81526004018082815260200191505060806040518083038186803b158015610c1957600080fd5b505afa158015610c2d573d6000803e3d6000fd5b505050506040513d6080811015610c4357600080fd5b8101908080519060200190929190805190602001909291908051906020019092919080519060200190929190505050846000018560200186604001876060018481525084815250848152508473ffffffffffffffffffffffffffffffffffffffff1673ffffffffffffffffffffffffffffffffffffffff16815250505050506000610cf58260400151836060015160008781548110610cde57fe5b9060005260206000209060050201600301546110a2565b9050610cff610d6b565b670de0b6b3a7640000820281610d1157fe5b0492505050919050565b6000600460009054906101000a900473ffffffffffffffffffffffffffffffffffffffff16905090565b600460009054906101000a900473ffffffffffffffffffffffffffffffffffffffff1681565b6000600560009054906101000a900473ffffffffffffffffffffffffffffffffffffffff1673ffffffffffffffffffffffffffffffffffffffff166357de26a46040518163ffffffff1660e01b815260040160206040518083038186803b158015610dd557600080fd5b505afa158015610de9573d6000803e3d6000fd5b505050506040513d6020811015610dff57600080fd5b810190808051906020019092919050505060001c905090565b6000610e2382610b7e565b3414610e97576040517f08c379a00000000000000000000000000000000000000000000000000000000081526004018080602001828103825260188152602001807f57726f6e672076616c75652073656e742077697468207478000000000000000081525060200191505060405180910390fd5b6000808381548110610ea557fe5b9060005260206000209060050201600001549050600460009054906101000a900473ffffffffffffffffffffffffffffffffffffffff1673ffffffffffffffffffffffffffffffffffffffff1663baa8529c82336040518363ffffffff1660e01b8152600401808381526020018273ffffffffffffffffffffffffffffffffffffffff1673ffffffffffffffffffffffffffffffffffffffff16815260200192505050600060405180830381600087803b158015610f6257600080fd5b505af1158015610f76573d6000803e3d6000fd5b5050505060008381548110610f8757fe5b906000526020600020906005020160010160009054906101000a900473ffffffffffffffffffffffffffffffffffffffff1673ffffffffffffffffffffffffffffffffffffffff166108fc349081150290604051600060405180830381858888f19350505050158015610ffe573d6000803e3d6000fd5b50336000848154811061100d57fe5b906000526020600020906005020160020160006101000a81548173ffffffffffffffffffffffffffffffffffffffff021916908373ffffffffffffffffffffffffffffffffffffffff16021790555060016000848154811061106b57fe5b906000526020600020906005020160040160006101000a81548160ff0219169083600281111561109757fe5b021790555050919050565b600068056bc75e2d6310000082606403670de0b6b3a7640000600a86816110c557fe5b0403860202816110d157fe5b0490509392505050565b600560009054906101000a900473ffffffffffffffffffffffffffffffffffffffff1681565b60025481565b6040518060800160405280600073ffffffffffffffffffffffffffffffffffffffff168152602001600081526020016000815260200160008152509056fea165627a7a723058207c8798f7f95607318e605b8d80bc6ff051e6d146eccfddbb3e08d68ede1e65160029",
  "source": "pragma solidity^0.5.3;\n\n/// @title DaiDaddy: secondary market to let people sell CDP's with outstanding debt\n/// @author Chris Maree\n\nimport \"./mocks/tub.sol\";\nimport \"./mocks/Medianizer.sol\";\n\ncontract DaiDaddy {\n\n    enum Status {LISTED, BOUGHT, CANCLED}\n\n    struct Debt {\n        bytes32 cupId;\n        address payable seller;\n        address buyer;\n        uint256 discount; //percentage discount (no decimal)\n        Status status;\n    }\n\n    struct Cup {\n        address  lad;      // CDP owner\n        uint256  ink;      // Locked collateral (in SKR)\n        uint256  art;      // Outstanding normalised debt (tax only)\n        uint256  ire;      // Outstanding normalised debt\n    }\n\n    // debt mappings and orders\n    Debt[] public debtBook;\n    mapping (bytes32 => uint256) cupsToDebt;\n    uint256 public debtItems;\n    mapping(address => uint256[]) addressToDebtSellers;\n\n    // contract instances\n    SaiTub public saiTubContract;\n    Medianizer public medianizerContract;\n\n\n    constructor(address _saiTubAddress, address _medianizerAddress) public {\n        saiTubContract = SaiTub(_saiTubAddress);\n        medianizerContract = Medianizer(_medianizerAddress);\n    }\n\n    function sellCDP(bytes32 _cupId, uint256 _discount) public {\n        //transfer the CDP to the DaiDaddy Contract\n        saiTubContract.give(_cupId, address(this));\n\n        // add the sale to the order book.\n        uint256 index = debtBook.push(Debt(_cupId, msg.sender, address(0), _discount, Status.LISTED)) - 1;\n        cupsToDebt[_cupId] = index;\n        addressToDebtSellers[msg.sender].push(index);\n    }\n\n    function buyCDP(uint256 _debtId) public payable returns (uint256) {\n        //ensure write value is sent with tx\n        require(msg.value == debtPositionPriceInEth(_debtId), \"Wrong value sent with tx\");\n        \n        bytes32 _cupId = debtBook[_debtId].cupId;\n\n        //transfer the CDP to the new owner\n        saiTubContract.give(_cupId, msg.sender);\n\n        //transfer ether to seller\n        debtBook[_debtId].seller.transfer(msg.value);\n\n        //update debt book\n        debtBook[_debtId].buyer = msg.sender;\n        debtBook[_debtId].status = Status.BOUGHT;\n    }\n\n    function cancelCDPSale(uint256 _debtId) public {\n        require(debtBook[_debtId].seller == msg.sender, \"Not your CDP sale to cancel\");\n        require(debtBook[_debtId].status == Status.LISTED, \"Wrong sell order status\");\n        bytes32 _cupId = debtBook[_debtId].cupId;\n        \n        // transfer sell order and change status\n        saiTubContract.give(_cupId, msg.sender);\n        debtBook[_debtId].status = Status.CANCLED;\n    }\n\n    function debtPositionPriceInEth(uint256 _debtId) public view returns (uint256) {\n        Cup memory cup;\n        (cup.lad, cup.ink, cup.art, cup.ire) = saiTubContract.cups(debtBook[_debtId].cupId);\n        \n        uint256 cdpValueUSD = debtPrice(cup.art, cup.ire, debtBook[_debtId].discount);\n        return (cdpValueUSD * 10 ** 18) / getEtherPrice();\n    }\n\n    function debtPrice(uint _art, uint _ire, uint _discount) public pure returns(uint) {\n        return _art * (_ire/10 - 10 ** 18) * (100 - _discount) / 10 ** 20;\n    }\n\n    function saiTubAddress() public view returns (address) {\n        return address(saiTubContract);\n    }\n\n    function getEtherPrice() public view returns(uint256){\n        return uint256(medianizerContract.read());\n    }\n\n    function getDebtSalesForAddress(address _address) public view returns(uint256[] memory){\n        return addressToDebtSellers[_address];\n    }\n}",
  "sourcePath": "/Users/chris/Projects/daidaddy/contracts/DaiDaddy.sol",
  "compiler": {
    "name": "solc",
    "version": "0.5.8+commit.23d335f2.Emscripten.clang"
  },
  "schemaVersion": "3.0.16",
  "updatedAt": "2019-10-20T09:19:09.844Z",
  "devdoc": {
    "methods": {}
  },
  "userdoc": {
    "methods": {}
  }
}