{
  "contractName": "DebtMarket",
  "abi": [
    {
      "constant": true,
      "inputs": [
        {
          "name": "",
          "type": "uint256"
        }
      ],
      "name": "debtBook",
      "outputs": [
        {
          "name": "cupId",
          "type": "bytes32"
        },
        {
          "name": "seller",
          "type": "address"
        },
        {
          "name": "buyer",
          "type": "address"
        },
        {
          "name": "discount",
          "type": "uint256"
        },
        {
          "name": "status",
          "type": "uint8"
        }
      ],
      "payable": false,
      "stateMutability": "view",
      "type": "function"
    },
    {
      "constant": true,
      "inputs": [],
      "name": "saiTubContract",
      "outputs": [
        {
          "name": "",
          "type": "address"
        }
      ],
      "payable": false,
      "stateMutability": "view",
      "type": "function"
    },
    {
      "constant": true,
      "inputs": [],
      "name": "medianizerContract",
      "outputs": [
        {
          "name": "",
          "type": "address"
        }
      ],
      "payable": false,
      "stateMutability": "view",
      "type": "function"
    },
    {
      "constant": true,
      "inputs": [],
      "name": "debtItems",
      "outputs": [
        {
          "name": "",
          "type": "uint256"
        }
      ],
      "payable": false,
      "stateMutability": "view",
      "type": "function"
    },
    {
      "inputs": [
        {
          "name": "_saiTubAddress",
          "type": "address"
        },
        {
          "name": "_medianizerAddress",
          "type": "address"
        }
      ],
      "payable": false,
      "stateMutability": "nonpayable",
      "type": "constructor"
    },
    {
      "constant": false,
      "inputs": [
        {
          "name": "_cupId",
          "type": "bytes32"
        },
        {
          "name": "_discount",
          "type": "uint256"
        }
      ],
      "name": "sellCDP",
      "outputs": [],
      "payable": false,
      "stateMutability": "nonpayable",
      "type": "function"
    },
    {
      "constant": false,
      "inputs": [
        {
          "name": "_debtId",
          "type": "uint256"
        }
      ],
      "name": "buyCDP",
      "outputs": [
        {
          "name": "",
          "type": "uint256"
        }
      ],
      "payable": true,
      "stateMutability": "payable",
      "type": "function"
    },
    {
      "constant": false,
      "inputs": [
        {
          "name": "_debtId",
          "type": "uint256"
        }
      ],
      "name": "cancelCDPSale",
      "outputs": [],
      "payable": false,
      "stateMutability": "nonpayable",
      "type": "function"
    },
    {
      "constant": true,
      "inputs": [
        {
          "name": "_debtId",
          "type": "uint256"
        }
      ],
      "name": "debtPositionPriceInEth",
      "outputs": [
        {
          "name": "",
          "type": "uint256"
        }
      ],
      "payable": false,
      "stateMutability": "view",
      "type": "function"
    },
    {
      "constant": true,
      "inputs": [
        {
          "name": "_art",
          "type": "uint256"
        },
        {
          "name": "_ire",
          "type": "uint256"
        },
        {
          "name": "_discount",
          "type": "uint256"
        }
      ],
      "name": "debtPrice",
      "outputs": [
        {
          "name": "",
          "type": "uint256"
        }
      ],
      "payable": false,
      "stateMutability": "pure",
      "type": "function"
    },
    {
      "constant": true,
      "inputs": [],
      "name": "saiTubAddress",
      "outputs": [
        {
          "name": "",
          "type": "address"
        }
      ],
      "payable": false,
      "stateMutability": "view",
      "type": "function"
    },
    {
      "constant": true,
      "inputs": [],
      "name": "getEtherPrice",
      "outputs": [
        {
          "name": "",
          "type": "uint256"
        }
      ],
      "payable": false,
      "stateMutability": "view",
      "type": "function"
    },
    {
      "constant": true,
      "inputs": [
        {
          "name": "_address",
          "type": "address"
        }
      ],
      "name": "getDebtSalesForAddress",
      "outputs": [
        {
          "name": "",
          "type": "uint256[]"
        }
      ],
      "payable": false,
      "stateMutability": "view",
      "type": "function"
    }
  ],
  "bytecode": "0x608060405234801561001057600080fd5b50604051604080610c358339810180604052604081101561003057600080fd5b508051602090910151600480546001600160a01b039384166001600160a01b03199182161790915560058054939092169216919091179055610bbe806100776000396000f3fe6080604052600436106100a75760003560e01c806397a8d81d1161006457806397a8d81d14610286578063ca7c4dba1461029b578063d3d3b776146102b0578063d6f471a5146102cd578063fa24d14114610303578063fe8ab8b714610318576100a7565b80630b04ae90146100ac5780632806a6c81461012f57806335e2937b1461015b5780637cd73dcb146101e957806380ec0566146102195780638572c91914610255575b600080fd5b3480156100b857600080fd5b506100df600480360360208110156100cf57600080fd5b50356001600160a01b031661032d565b60408051602080825283518183015283519192839290830191858101910280838360005b8381101561011b578181015183820152602001610103565b505050509050019250505060405180910390f35b34801561013b57600080fd5b506101596004803603602081101561015257600080fd5b5035610399565b005b34801561016757600080fd5b506101856004803603602081101561017e57600080fd5b503561056c565b60405180868152602001856001600160a01b03166001600160a01b03168152602001846001600160a01b03166001600160a01b031681526020018381526020018260028111156101d157fe5b60ff1681526020019550505050505060405180910390f35b3480156101f557600080fd5b506101596004803603604081101561020c57600080fd5b50803590602001356105b8565b34801561022557600080fd5b506102436004803603602081101561023c57600080fd5b50356107a1565b60408051918252519081900360200190f35b34801561026157600080fd5b5061026a6108c4565b604080516001600160a01b039092168252519081900360200190f35b34801561029257600080fd5b5061026a6108d3565b3480156102a757600080fd5b506102436108e2565b610243600480360360208110156102c657600080fd5b503561095b565b3480156102d957600080fd5b50610243600480360360608110156102f057600080fd5b5080359060208101359060400135610b1d565b34801561030f57600080fd5b5061026a610b4c565b34801561032457600080fd5b50610243610b5b565b6001600160a01b03811660009081526003602090815260409182902080548351818402810184019094528084526060939283018282801561038d57602002820191906000526020600020905b815481526020019060010190808311610379575b50505050509050919050565b336001600160a01b0316600082815481106103b057fe5b60009182526020909120600160059092020101546001600160a01b0316146104225760408051600160e51b62461bcd02815260206004820152601b60248201527f4e6f7420796f7572204344502073616c6520746f2063616e63656c0000000000604482015290519081900360640190fd5b600080828154811061043057fe5b600091825260209091206004600590920201015460ff16600281111561045257fe5b146104a75760408051600160e51b62461bcd02815260206004820152601760248201527f57726f6e672073656c6c206f7264657220737461747573000000000000000000604482015290519081900360640190fd5b60008082815481106104b557fe5b600091825260208220600590910201546004805460408051600160e21b632eaa14a7028152928301849052336024840152519294506001600160a01b03169263baa8529c9260448084019382900301818387803b15801561051557600080fd5b505af1158015610529573d6000803e3d6000fd5b5050505060026000838154811061053c57fe5b60009182526020909120600460059092020101805460ff1916600183600281111561056357fe5b02179055505050565b6000818154811061057957fe5b6000918252602090912060059091020180546001820154600283015460038401546004909401549294506001600160a01b039182169391169160ff1685565b6004805460408051600160e21b632eaa14a7028152928301859052306024840152516001600160a01b039091169163baa8529c91604480830192600092919082900301818387803b15801561060c57600080fd5b505af1158015610620573d6000803e3d6000fd5b50506040805160a0810182528581523360208201908152600092820183815260608301878152608084018581528554600180820180895588805287517f290decd9548b62a8d60345a988386fc84ba6bc95484008f6362f93160ef3e563600590940293840190815596517f290decd9548b62a8d60345a988386fc84ba6bc95484008f6362f93160ef3e564840180546001600160a01b03199081166001600160a01b039384161790915596517f290decd9548b62a8d60345a988386fc84ba6bc95484008f6362f93160ef3e5658501805490981691161790955592517f290decd9548b62a8d60345a988386fc84ba6bc95484008f6362f93160ef3e56682015590517f290decd9548b62a8d60345a988386fc84ba6bc95484008f6362f93160ef3e5679091018054969850919650919460ff19168683600281111561076157fe5b0217905550505060009485526001602081815260408088209490930393849055338752600381529186208054918201815586529420909301929092555050565b60006107ab610b61565b600454600080546001600160a01b039092169163fdac00259190869081106107cf57fe5b9060005260206000209060050201600001546040518263ffffffff1660e01b81526004018082815260200191505060806040518083038186803b15801561081557600080fd5b505afa158015610829573d6000803e3d6000fd5b505050506040513d608081101561083f57600080fd5b508051602080830151604080850151606095860151958701869052908601819052918501526001600160a01b03909116835260008054909261089f929184908890811061088857fe5b906000526020600020906005020160030154610b1d565b90506108a96108e2565b81670de0b6b3a764000002816108bb57fe5b04949350505050565b6004546001600160a01b031690565b6004546001600160a01b031681565b60055460408051600160e21b6315f789a902815290516000926001600160a01b0316916357de26a4916004808301926020929190829003018186803b15801561092a57600080fd5b505afa15801561093e573d6000803e3d6000fd5b505050506040513d602081101561095457600080fd5b5051905090565b6000610966826107a1565b34146109bc5760408051600160e51b62461bcd02815260206004820152601860248201527f57726f6e672076616c75652073656e7420776974682074780000000000000000604482015290519081900360640190fd5b60008083815481106109ca57fe5b600091825260208220600590910201546004805460408051600160e21b632eaa14a7028152928301849052336024840152519294506001600160a01b03169263baa8529c9260448084019382900301818387803b158015610a2a57600080fd5b505af1158015610a3e573d6000803e3d6000fd5b5050505060008381548110610a4f57fe5b600091825260208220600160059092020101546040516001600160a01b03909116913480156108fc02929091818181858888f19350505050158015610a98573d6000803e3d6000fd5b503360008481548110610aa757fe5b906000526020600020906005020160020160006101000a8154816001600160a01b0302191690836001600160a01b03160217905550600160008481548110610aeb57fe5b60009182526020909120600460059092020101805460ff19166001836002811115610b1257fe5b021790555050919050565b600068056bc75e2d6310000082606403670de0b6b3a7640000600a8681610b4057fe5b0403860202816108bb57fe5b6005546001600160a01b031681565b60025481565b604051806080016040528060006001600160a01b03168152602001600081526020016000815260200160008152509056fea165627a7a723058200863dcc9a911a1558ccda8eb74289cd97f7510821ae02b4689380c330770ddd10029",
  "source": "pragma solidity ^0.5.3;\n\n/// @title DaiDaddy: secondary market to let people sell CDP's with outstanding debt\n/// @author Chris Maree\n\nimport \"./SaiTubInterface.sol\";\nimport \"./MedianizerInterface.sol\";\n\ncontract DebtMarket {\n    enum Status {LISTED, BOUGHT, CANCLED}\n\n    struct Debt {\n        bytes32 cupId;\n        address payable seller;\n        address buyer;\n        uint256 discount; //percentage discount (no decimal)\n        Status status;\n    }\n\n    struct Cup {\n        address lad; // CDP owner\n        uint256 ink; // Locked collateral (in SKR)\n        uint256 art; // Outstanding normalised debt (tax only)\n        uint256 ire; // Outstanding normalised debt\n    }\n\n    // debt mappings and orders\n    Debt[] public debtBook;\n    mapping(bytes32 => uint256) cupsToDebt;\n    uint256 public debtItems;\n    mapping(address => uint256[]) addressToDebtSellers;\n\n    // contract instances\n    SaiTub public saiTubContract;\n    Medianizer public medianizerContract;\n\n    constructor(address _saiTubAddress, address _medianizerAddress) public {\n        saiTubContract = SaiTub(_saiTubAddress);\n        medianizerContract = Medianizer(_medianizerAddress);\n    }\n\n    function sellCDP(bytes32 _cupId, uint256 _discount) public {\n        //transfer the CDP to the DaiDaddy Contract\n        saiTubContract.give(_cupId, address(this));\n\n        // add the sale to the order book.\n        uint256 index = debtBook.push(\n            Debt(_cupId, msg.sender, address(0), _discount, Status.LISTED)\n        ) -\n            1;\n        cupsToDebt[_cupId] = index;\n        addressToDebtSellers[msg.sender].push(index);\n    }\n\n    function buyCDP(uint256 _debtId) public payable returns (uint256) {\n        //ensure write value is sent with tx\n        require(\n            msg.value == debtPositionPriceInEth(_debtId),\n            \"Wrong value sent with tx\"\n        );\n\n        bytes32 _cupId = debtBook[_debtId].cupId;\n\n        //transfer the CDP to the new owner\n        saiTubContract.give(_cupId, msg.sender);\n\n        //transfer ether to seller\n        debtBook[_debtId].seller.transfer(msg.value);\n\n        //update debt book\n        debtBook[_debtId].buyer = msg.sender;\n        debtBook[_debtId].status = Status.BOUGHT;\n    }\n\n    function cancelCDPSale(uint256 _debtId) public {\n        require(\n            debtBook[_debtId].seller == msg.sender,\n            \"Not your CDP sale to cancel\"\n        );\n        require(\n            debtBook[_debtId].status == Status.LISTED,\n            \"Wrong sell order status\"\n        );\n        bytes32 _cupId = debtBook[_debtId].cupId;\n\n        // transfer sell order and change status\n        saiTubContract.give(_cupId, msg.sender);\n        debtBook[_debtId].status = Status.CANCLED;\n    }\n\n    function debtPositionPriceInEth(uint256 _debtId)\n        public\n        view\n        returns (uint256)\n    {\n        Cup memory cup;\n        (cup.lad, cup.ink, cup.art, cup.ire) = saiTubContract.cups(\n            debtBook[_debtId].cupId\n        );\n\n        uint256 cdpValueUSD = debtPrice(\n            cup.art,\n            cup.ire,\n            debtBook[_debtId].discount\n        );\n        return (cdpValueUSD * 10**18) / getEtherPrice();\n    }\n\n    function debtPrice(uint256 _art, uint256 _ire, uint256 _discount)\n        public\n        pure\n        returns (uint256)\n    {\n        return (_art * (_ire / 10 - 10**18) * (100 - _discount)) / 10**20;\n    }\n\n    function saiTubAddress() public view returns (address) {\n        return address(saiTubContract);\n    }\n\n    function getEtherPrice() public view returns (uint256) {\n        return uint256(medianizerContract.read());\n    }\n\n    function getDebtSalesForAddress(address _address)\n        public\n        view\n        returns (uint256[] memory)\n    {\n        return addressToDebtSellers[_address];\n    }\n}\n",
  "sourcePath": "/Users/chris/Projects/DaiDaddy/contracts/DebtMarket.sol",
  "compiler": {
    "name": "solc",
    "version": "0.5.7+commit.6da8b019.Emscripten.clang"
  },
  "schemaVersion": "3.0.16",
  "updatedAt": "2019-10-28T07:04:29.201Z",
  "devdoc": {
    "methods": {}
  },
  "userdoc": {
    "methods": {}
  }
}