{
  "contractName": "KyberNetworkProxyMock",
  "abi": [
    {
      "constant": true,
      "inputs": [],
      "name": "daiContract",
      "outputs": [
        {
          "name": "",
          "type": "address"
        }
      ],
      "payable": false,
      "stateMutability": "view",
      "type": "function"
    },
    {
      "constant": true,
      "inputs": [],
      "name": "wethContract",
      "outputs": [
        {
          "name": "",
          "type": "address"
        }
      ],
      "payable": false,
      "stateMutability": "view",
      "type": "function"
    },
    {
      "inputs": [
        {
          "name": "_expectedRate",
          "type": "uint256"
        },
        {
          "name": "_slippageRate",
          "type": "uint256"
        },
        {
          "name": "_daiTokenAddress",
          "type": "address"
        },
        {
          "name": "_wethTokenAddress",
          "type": "address"
        }
      ],
      "payable": false,
      "stateMutability": "nonpayable",
      "type": "constructor"
    },
    {
      "constant": false,
      "inputs": [
        {
          "name": "src",
          "type": "address"
        },
        {
          "name": "srcAmount",
          "type": "uint256"
        },
        {
          "name": "dest",
          "type": "address"
        },
        {
          "name": "destAddress",
          "type": "address"
        },
        {
          "name": "maxDestAmount",
          "type": "uint256"
        },
        {
          "name": "minConversionRate",
          "type": "uint256"
        },
        {
          "name": "walletId",
          "type": "address"
        }
      ],
      "name": "trade",
      "outputs": [
        {
          "name": "",
          "type": "uint256"
        }
      ],
      "payable": false,
      "stateMutability": "nonpayable",
      "type": "function"
    },
    {
      "constant": true,
      "inputs": [
        {
          "name": "src",
          "type": "address"
        },
        {
          "name": "dest",
          "type": "address"
        },
        {
          "name": "srcQty",
          "type": "uint256"
        }
      ],
      "name": "getExpectedRate",
      "outputs": [
        {
          "name": "",
          "type": "uint256"
        },
        {
          "name": "",
          "type": "uint256"
        }
      ],
      "payable": false,
      "stateMutability": "view",
      "type": "function"
    }
  ],
  "bytecode": "0x608060405234801561001057600080fd5b506040516080806103de8339810180604052608081101561003057600080fd5b50805160208201516040830151606090930151600092909255600155600280546001600160a01b039384166001600160a01b031991821617909155600380549390921692169190911790556103548061008a6000396000f3fe608060405234801561001057600080fd5b506004361061004c5760003560e01c80632ce8b913146100515780634780eac114610075578063809a9e551461007d578063cb3c28c7146100cc575b600080fd5b610059610130565b604080516001600160a01b039092168252519081900360200190f35b61005961013f565b6100b36004803603606081101561009357600080fd5b506001600160a01b0381358116916020810135909116906040013561014e565b6040805192835260208301919091528051918290030190f35b61011e600480360360e08110156100e257600080fd5b506001600160a01b0381358116916020810135916040820135811691606081013582169160808201359160a08101359160c0909101351661015c565b60408051918252519081900360200190f35b6002546001600160a01b031681565b6003546001600160a01b031681565b600054600154935093915050565b60025460408051600160e01b63a9059cbb028152336004820152670de0b6b3a7640000898602046024820181905291516000936001600160a01b03169163a9059cbb91604480830192602092919082900301818887803b1580156101bf57600080fd5b505af11580156101d3573d6000803e3d6000fd5b505050506040513d60208110156101e957600080fd5b505161023f5760408051600160e51b62461bcd02815260206004820152601960248201527f64616920746f6b656e207472616e73666572206661696c656400000000000000604482015290519081900360640190fd5b60035460408051600160e01b6323b872dd028152336004820152306024820152604481018b905290516001600160a01b03909216916323b872dd916064808201926020929091908290030181600087803b15801561029c57600080fd5b505af11580156102b0573d6000803e3d6000fd5b505050506040513d60208110156102c657600080fd5b505161031c5760408051600160e51b62461bcd02815260206004820152601a60248201527f7765746820746f6b656e207472616e73666572206661696c6564000000000000604482015290519081900360640190fd5b9897505050505050505056fea165627a7a723058207a06faa6f248dbbbd43d16c8a0d734a1b9e42ce8bb5e52c85e74f2071d4a94ec0029",
  "source": "pragma solidity ^0.5.7;\n\nimport \"../ERC20Interface.sol\";\n\ncontract KyberNetworkProxyMock {\n    uint256 expectedRate;\n    uint256 slippageRate;\n\n    ERC20 public daiContract;\n    ERC20 public wethContract;\n\n    constructor(\n        uint256 _expectedRate,\n        uint256 _slippageRate,\n        address _daiTokenAddress,\n        address _wethTokenAddress\n    ) public {\n        expectedRate = _expectedRate;\n        slippageRate = _slippageRate;\n\n        daiContract = ERC20(_daiTokenAddress);\n        wethContract = ERC20(_wethTokenAddress);\n    }\n\n    function trade(\n        ERC20 src, //src Src token\n        uint256 srcAmount, //srcAmount amount of src tokens\n        ERC20 dest, //dest Destination token\n        address destAddress, //destAddress Address to send tokens to\n        uint256 maxDestAmount, //maxDestAmount A limit on the amount of dest tokens\n        uint256 minConversionRate, //minConversionRate The minimal conversion rate. If actual rate is lower, trade is canceled.\n        address walletId //walletId is the wallet ID to send part of the fees\n    ) public returns (uint256) {\n        //amount of actual dest tokens\n        uint256 tokensToSend = (minConversionRate * srcAmount) / (10**18);\n\n        require(\n            daiContract.transfer(msg.sender, tokensToSend),\n            \"dai token transfer failed\"\n        ); //send dai\n        require(\n            wethContract.transferFrom(msg.sender, address(this), srcAmount),\n            \"weth token transfer failed\"\n        ); //recive weth\n        return tokensToSend;\n    }\n\n    function getExpectedRate(ERC20 src, ERC20 dest, uint256 srcQty)\n        public\n        view\n        returns (uint256, uint256)\n    {\n        return (expectedRate, slippageRate);\n    }\n}\n",
  "sourcePath": "/Users/chris/Projects/DaiDaddy/contracts/mocks/KyberNetworkProxyMock.sol",
  "compiler": {
    "name": "solc",
    "version": "0.5.7+commit.6da8b019.Emscripten.clang"
  },
  "schemaVersion": "3.0.16",
  "updatedAt": "2019-10-28T07:04:29.220Z",
  "devdoc": {
    "methods": {}
  },
  "userdoc": {
    "methods": {}
  }
}