{
  "contractName": "KyberNetworkProxy",
  "abi": [
    {
      "constant": false,
      "inputs": [
        {
          "name": "src",
          "type": "address"
        },
        {
          "name": "srcAmount",
          "type": "uint256"
        },
        {
          "name": "dest",
          "type": "address"
        },
        {
          "name": "destAddress",
          "type": "address"
        },
        {
          "name": "maxDestAmount",
          "type": "uint256"
        },
        {
          "name": "minConversionRate",
          "type": "uint256"
        },
        {
          "name": "walletId",
          "type": "address"
        }
      ],
      "name": "trade",
      "outputs": [
        {
          "name": "",
          "type": "uint256"
        }
      ],
      "payable": true,
      "stateMutability": "payable",
      "type": "function"
    },
    {
      "constant": true,
      "inputs": [
        {
          "name": "src",
          "type": "address"
        },
        {
          "name": "dest",
          "type": "address"
        },
        {
          "name": "srcQty",
          "type": "uint256"
        }
      ],
      "name": "getExpectedRate",
      "outputs": [
        {
          "name": "expectedRate",
          "type": "uint256"
        },
        {
          "name": "slippageRate",
          "type": "uint256"
        }
      ],
      "payable": false,
      "stateMutability": "view",
      "type": "function"
    }
  ],
  "bytecode": "0x608060405234801561001057600080fd5b506101f0806100206000396000f3fe6080604052600436106100295760003560e01c8063809a9e551461002e578063cb3c28c7146100c4575b600080fd5b34801561003a57600080fd5b506100a76004803603606081101561005157600080fd5b81019080803573ffffffffffffffffffffffffffffffffffffffff169060200190929190803573ffffffffffffffffffffffffffffffffffffffff1690602001909291908035906020019092919050505061019a565b604051808381526020018281526020019250505060405180910390f35b610184600480360360e08110156100da57600080fd5b81019080803573ffffffffffffffffffffffffffffffffffffffff16906020019092919080359060200190929190803573ffffffffffffffffffffffffffffffffffffffff169060200190929190803573ffffffffffffffffffffffffffffffffffffffff1690602001909291908035906020019092919080359060200190929190803573ffffffffffffffffffffffffffffffffffffffff1690602001909291905050506101b3565b6040518082815260200191505060405180910390f35b6000806064606581915080905091509150935093915050565b60006064905097965050505050505056fea165627a7a72305820f2a7070287aec9c48bf8524b9d22eb6714ceb57258eec742be51bcf47e85a80e0029",
  "source": "pragma solidity ^0.5.7;\n\nimport \"../ERC20Interface.sol\";\n\ncontract KyberNetworkProxy {\n    /// @notice use token address ETH_TOKEN_ADDRESS for ether\n    /// @dev makes a trade between src and dest token and send dest token to destAddress\n    /// @param src Src token\n    /// @param srcAmount amount of src tokens\n    /// @param dest   Destination token\n    /// @param destAddress Address to send tokens to\n    /// @param maxDestAmount A limit on the amount of dest tokens\n    /// @param minConversionRate The minimal conversion rate. If actual rate is lower, trade is canceled.\n    /// @param walletId is the wallet ID to send part of the fees\n    /// @return amount of actual dest tokens\n    function trade(\n        ERC20 src,\n        uint srcAmount,\n        ERC20 dest,\n        address destAddress,\n        uint maxDestAmount,\n        uint minConversionRate,\n        address walletId\n    )\n        public\n        payable\n        returns(uint)\n    {\n        return 100;\n    }\n\n    function getExpectedRate(ERC20 src, ERC20 dest, uint srcQty)\n        public view\n        returns(uint expectedRate, uint slippageRate)\n    {\n        return (100, 101);\n    }\n}",
  "sourcePath": "/Users/chris/Projects/DaiDaddy/contracts/mocks/KyberNetworkProxy.sol",
  "compiler": {
    "name": "solc",
    "version": "0.5.7+commit.6da8b019.Emscripten.clang"
  },
  "schemaVersion": "3.0.16",
  "updatedAt": "2019-10-26T15:50:14.397Z",
  "devdoc": {
    "methods": {
      "trade(address,uint256,address,address,uint256,uint256,address)": {
        "details": "makes a trade between src and dest token and send dest token to destAddress",
        "params": {
          "dest": "Destination token",
          "destAddress": "Address to send tokens to",
          "maxDestAmount": "A limit on the amount of dest tokens",
          "minConversionRate": "The minimal conversion rate. If actual rate is lower, trade is canceled.",
          "src": "Src token",
          "srcAmount": "amount of src tokens",
          "walletId": "is the wallet ID to send part of the fees"
        },
        "return": "amount of actual dest tokens"
      }
    }
  },
  "userdoc": {
    "methods": {
      "trade(address,uint256,address,address,uint256,uint256,address)": {
        "notice": "use token address ETH_TOKEN_ADDRESS for ether"
      }
    }
  }
}