{
  "contractName": "KyberNetworkProxyMock",
  "abi": [
    {
      "constant": true,
      "inputs": [],
      "name": "daiContract",
      "outputs": [
        {
          "name": "",
          "type": "address"
        }
      ],
      "payable": false,
      "stateMutability": "view",
      "type": "function"
    },
    {
      "inputs": [
        {
          "name": "_expectedRate",
          "type": "uint256"
        },
        {
          "name": "_slippageRate",
          "type": "uint256"
        },
        {
          "name": "_daiTokenAddress",
          "type": "address"
        }
      ],
      "payable": false,
      "stateMutability": "nonpayable",
      "type": "constructor"
    },
    {
      "constant": false,
      "inputs": [
        {
          "name": "src",
          "type": "address"
        },
        {
          "name": "srcAmount",
          "type": "uint256"
        },
        {
          "name": "dest",
          "type": "address"
        },
        {
          "name": "destAddress",
          "type": "address"
        },
        {
          "name": "maxDestAmount",
          "type": "uint256"
        },
        {
          "name": "minConversionRate",
          "type": "uint256"
        },
        {
          "name": "walletId",
          "type": "address"
        }
      ],
      "name": "trade",
      "outputs": [
        {
          "name": "",
          "type": "uint256"
        }
      ],
      "payable": true,
      "stateMutability": "payable",
      "type": "function"
    },
    {
      "constant": true,
      "inputs": [
        {
          "name": "src",
          "type": "address"
        },
        {
          "name": "dest",
          "type": "address"
        },
        {
          "name": "srcQty",
          "type": "uint256"
        }
      ],
      "name": "getExpectedRate",
      "outputs": [
        {
          "name": "",
          "type": "uint256"
        },
        {
          "name": "",
          "type": "uint256"
        }
      ],
      "payable": false,
      "stateMutability": "view",
      "type": "function"
    }
  ],
  "bytecode": "0x608060405234801561001057600080fd5b506040516060806104268339810180604052606081101561003057600080fd5b81019080805190602001909291908051906020019092919080519060200190929190505050826000819055508160018190555080600260006101000a81548173ffffffffffffffffffffffffffffffffffffffff021916908373ffffffffffffffffffffffffffffffffffffffff160217905550505050610370806100b66000396000f3fe6080604052600436106100345760003560e01c80632ce8b91314610039578063809a9e5514610090578063cb3c28c714610126575b600080fd5b34801561004557600080fd5b5061004e6101fc565b604051808273ffffffffffffffffffffffffffffffffffffffff1673ffffffffffffffffffffffffffffffffffffffff16815260200191505060405180910390f35b34801561009c57600080fd5b50610109600480360360608110156100b357600080fd5b81019080803573ffffffffffffffffffffffffffffffffffffffff169060200190929190803573ffffffffffffffffffffffffffffffffffffffff16906020019092919080359060200190929190505050610222565b604051808381526020018281526020019250505060405180910390f35b6101e6600480360360e081101561013c57600080fd5b81019080803573ffffffffffffffffffffffffffffffffffffffff16906020019092919080359060200190929190803573ffffffffffffffffffffffffffffffffffffffff169060200190929190803573ffffffffffffffffffffffffffffffffffffffff1690602001909291908035906020019092919080359060200190929190803573ffffffffffffffffffffffffffffffffffffffff169060200190929190505050610237565b6040518082815260200191505060405180910390f35b600260009054906101000a900473ffffffffffffffffffffffffffffffffffffffff1681565b60008060005460015491509150935093915050565b600080670de0b6b3a76400003485028161024d57fe5b049050600260009054906101000a900473ffffffffffffffffffffffffffffffffffffffff1673ffffffffffffffffffffffffffffffffffffffff1663a9059cbb33836040518363ffffffff1660e01b8152600401808373ffffffffffffffffffffffffffffffffffffffff1673ffffffffffffffffffffffffffffffffffffffff16815260200182815260200192505050602060405180830381600087803b1580156102f957600080fd5b505af115801561030d573d6000803e3d6000fd5b505050506040513d602081101561032357600080fd5b8101908080519060200190929190505050508091505097965050505050505056fea165627a7a72305820d3e1b3d31547654ba1daca52d1adb3f14ba6ded06d8101a60ed1d5f9a6b21f350029",
  "source": "pragma solidity ^0.5.7;\n\nimport \"../ERC20Interface.sol\";\n\ncontract KyberNetworkProxyMock {    \n    uint expectedRate;\n    uint slippageRate;\n\n    ERC20 public daiContract;\n\n    constructor( uint _expectedRate, uint _slippageRate, address _daiTokenAddress) public{\n        expectedRate = _expectedRate;\n        slippageRate = _slippageRate;\n\n        daiContract = ERC20(_daiTokenAddress);\n    }\n    \n\n    /// @notice use token address ETH_TOKEN_ADDRESS for ether\n    /// @dev makes a trade between src and dest token and send dest token to destAddress\n    /// @param src Src token\n    /// @param srcAmount amount of src tokens\n    /// @param dest   Destination token\n    /// @param destAddress Address to send tokens to\n    /// @param maxDestAmount A limit on the amount of dest tokens\n    /// @param minConversionRate The minimal conversion rate. If actual rate is lower, trade is canceled.\n    /// @param walletId is the wallet ID to send part of the fees\n    /// @return amount of actual dest tokens\n    function trade(\n        ERC20 src,\n        uint srcAmount,\n        ERC20 dest,\n        address destAddress,\n        uint maxDestAmount,\n        uint minConversionRate,\n        address walletId\n    )\n        public\n        payable\n        returns(uint)\n    {\n        uint256 tokensToSend = (minConversionRate * msg.value) / (10 ** 18);\n        daiContract.transfer(msg.sender, tokensToSend);\n        return tokensToSend;\n    }\n\n    function getExpectedRate(ERC20 src, ERC20 dest, uint srcQty)\n        public view\n        returns(uint, uint)\n    {\n        return (expectedRate, slippageRate);\n    }\n}",
  "sourcePath": "/Users/chris/Projects/DaiDaddy/contracts/mocks/KyberNetworkProxyMock.sol",
  "compiler": {
    "name": "solc",
    "version": "0.5.7+commit.6da8b019.Emscripten.clang"
  },
  "schemaVersion": "3.0.16",
  "updatedAt": "2019-10-26T20:50:30.167Z",
  "devdoc": {
    "methods": {
      "trade(address,uint256,address,address,uint256,uint256,address)": {
        "details": "makes a trade between src and dest token and send dest token to destAddress",
        "params": {
          "dest": "Destination token",
          "destAddress": "Address to send tokens to",
          "maxDestAmount": "A limit on the amount of dest tokens",
          "minConversionRate": "The minimal conversion rate. If actual rate is lower, trade is canceled.",
          "src": "Src token",
          "srcAmount": "amount of src tokens",
          "walletId": "is the wallet ID to send part of the fees"
        },
        "return": "amount of actual dest tokens"
      }
    }
  },
  "userdoc": {
    "methods": {
      "trade(address,uint256,address,address,uint256,uint256,address)": {
        "notice": "use token address ETH_TOKEN_ADDRESS for ether"
      }
    }
  }
}