{
  "contractName": "MedianizerMock",
  "abi": [
    {
      "inputs": [
        {
          "name": "_etherPrice",
          "type": "uint256"
        }
      ],
      "payable": false,
      "stateMutability": "nonpayable",
      "type": "constructor"
    },
    {
      "constant": true,
      "inputs": [],
      "name": "read",
      "outputs": [
        {
          "name": "",
          "type": "bytes32"
        }
      ],
      "payable": false,
      "stateMutability": "view",
      "type": "function"
    }
  ],
  "bytecode": "0x60806040526000805534801561001457600080fd5b506040516020806100be8339810180604052602081101561003457600080fd5b50516000556077806100476000396000f3fe6080604052348015600f57600080fd5b506004361060285760003560e01c806357de26a414602d575b600080fd5b60336045565b60408051918252519081900360200190f35b6000549056fea165627a7a723058200a544411d8b14c8f34d5ae92487e33ed276fffee3d31784be39349a957de885e0029",
  "source": "pragma solidity ^0.5.7;\n\ncontract MedianizerMock {\n    uint256 etherPrice = 0;\n\n    constructor(uint256 _etherPrice) public {\n        etherPrice = _etherPrice;\n    }\n\n    function read() public view returns (bytes32) {\n        return bytes32(etherPrice);\n    }\n}\n",
  "sourcePath": "/Users/chris/Projects/DaiDaddy/contracts/mocks/MedianizerMock.sol",
  "compiler": {
    "name": "solc",
    "version": "0.5.7+commit.6da8b019.Emscripten.clang"
  },
  "schemaVersion": "3.0.16",
  "updatedAt": "2019-10-28T07:03:38.274Z",
  "devdoc": {
    "methods": {}
  },
  "userdoc": {
    "methods": {}
  }
}