{
  "contractName": "SaiTubMock",
  "abi": [
    {
      "constant": true,
      "inputs": [],
      "name": "cupi",
      "outputs": [
        {
          "name": "",
          "type": "uint256"
        }
      ],
      "payable": false,
      "stateMutability": "view",
      "type": "function"
    },
    {
      "constant": true,
      "inputs": [],
      "name": "tabValue",
      "outputs": [
        {
          "name": "",
          "type": "uint256"
        }
      ],
      "payable": false,
      "stateMutability": "view",
      "type": "function"
    },
    {
      "constant": true,
      "inputs": [
        {
          "name": "",
          "type": "bytes32"
        }
      ],
      "name": "cups",
      "outputs": [
        {
          "name": "lad",
          "type": "address"
        },
        {
          "name": "ink",
          "type": "uint256"
        },
        {
          "name": "art",
          "type": "uint256"
        },
        {
          "name": "ire",
          "type": "uint256"
        }
      ],
      "payable": false,
      "stateMutability": "view",
      "type": "function"
    },
    {
      "inputs": [
        {
          "name": "cupId",
          "type": "bytes32"
        },
        {
          "name": "_cupLad",
          "type": "address"
        },
        {
          "name": "_cupInk",
          "type": "uint256"
        },
        {
          "name": "_cupArt",
          "type": "uint256"
        },
        {
          "name": "_cupIre",
          "type": "uint256"
        },
        {
          "name": "_cupTab",
          "type": "uint256"
        },
        {
          "name": "_uintRap",
          "type": "uint256"
        }
      ],
      "payable": false,
      "stateMutability": "nonpayable",
      "type": "constructor"
    },
    {
      "constant": false,
      "inputs": [
        {
          "name": "cup",
          "type": "bytes32"
        },
        {
          "name": "guy",
          "type": "address"
        }
      ],
      "name": "give",
      "outputs": [],
      "payable": false,
      "stateMutability": "nonpayable",
      "type": "function"
    },
    {
      "constant": true,
      "inputs": [
        {
          "name": "cup",
          "type": "bytes32"
        }
      ],
      "name": "lad",
      "outputs": [
        {
          "name": "",
          "type": "address"
        }
      ],
      "payable": false,
      "stateMutability": "view",
      "type": "function"
    },
    {
      "constant": true,
      "inputs": [
        {
          "name": "cup",
          "type": "bytes32"
        }
      ],
      "name": "ink",
      "outputs": [
        {
          "name": "",
          "type": "uint256"
        }
      ],
      "payable": false,
      "stateMutability": "view",
      "type": "function"
    },
    {
      "constant": false,
      "inputs": [
        {
          "name": "cup",
          "type": "bytes32"
        }
      ],
      "name": "tab",
      "outputs": [
        {
          "name": "",
          "type": "uint256"
        }
      ],
      "payable": false,
      "stateMutability": "nonpayable",
      "type": "function"
    },
    {
      "constant": false,
      "inputs": [
        {
          "name": "cup",
          "type": "bytes32"
        }
      ],
      "name": "rap",
      "outputs": [
        {
          "name": "",
          "type": "uint256"
        }
      ],
      "payable": false,
      "stateMutability": "nonpayable",
      "type": "function"
    },
    {
      "constant": false,
      "inputs": [],
      "name": "chi",
      "outputs": [
        {
          "name": "",
          "type": "uint256"
        }
      ],
      "payable": false,
      "stateMutability": "nonpayable",
      "type": "function"
    }
  ],
  "bytecode": "0x608060405234801561001057600080fd5b5060405160e0806105a8833981018060405260e081101561003057600080fd5b810190808051906020019092919080519060200190929190805190602001909291908051906020019092919080519060200190929190805190602001909291908051906020019092919050505060405180608001604052808773ffffffffffffffffffffffffffffffffffffffff168152602001868152602001858152602001848152506001600089815260200190815260200160002060008201518160000160006101000a81548173ffffffffffffffffffffffffffffffffffffffff021916908373ffffffffffffffffffffffffffffffffffffffff160217905550602082015181600101556040820151816002015560608201518160030155905050816002819055508060038190555050505050505050610455806101536000396000f3fe608060405234801561001057600080fd5b50600436106100935760003560e01c8063baa8529c11610066578063baa8529c14610158578063c92aecc4146101a6578063de5f5517146101c4578063f7c8d63414610232578063fdac00251461027457610093565b80631f3634ed1461009857806349955431146100da5780636f78ee0d146100f8578063913216df1461013a575b600080fd5b6100c4600480360360208110156100ae57600080fd5b81019080803590602001909291905050506102f7565b6040518082815260200191505060405180910390f35b6100e2610317565b6040518082815260200191505060405180910390f35b6101246004803603602081101561010e57600080fd5b810190808035906020019092919050505061031d565b6040518082815260200191505060405180910390f35b610142610329565b6040518082815260200191505060405180910390f35b6101a46004803603604081101561016e57600080fd5b8101908080359060200190929190803573ffffffffffffffffffffffffffffffffffffffff16906020019092919050505061032f565b005b6101ae610388565b6040518082815260200191505060405180910390f35b6101f0600480360360208110156101da57600080fd5b810190808035906020019092919050505061038d565b604051808273ffffffffffffffffffffffffffffffffffffffff1673ffffffffffffffffffffffffffffffffffffffff16815260200191505060405180910390f35b61025e6004803603602081101561024857600080fd5b81019080803590602001909291905050506103cd565b6040518082815260200191505060405180910390f35b6102a06004803603602081101561028a57600080fd5b81019080803590602001909291905050506103d9565b604051808573ffffffffffffffffffffffffffffffffffffffff1673ffffffffffffffffffffffffffffffffffffffff16815260200184815260200183815260200182815260200194505050505060405180910390f35b600060016000838152602001908152602001600020600101549050919050565b60005481565b60006003549050919050565b60025481565b806001600084815260200190815260200160002060000160006101000a81548173ffffffffffffffffffffffffffffffffffffffff021916908373ffffffffffffffffffffffffffffffffffffffff1602179055505050565b600090565b60006001600083815260200190815260200160002060000160009054906101000a900473ffffffffffffffffffffffffffffffffffffffff169050919050565b60006002549050919050565b60016020528060005260406000206000915090508060000160009054906101000a900473ffffffffffffffffffffffffffffffffffffffff1690806001015490806002015490806003015490508456fea165627a7a72305820eef5723692ba60b9ba1d0ca80a15fe5d04cd81f63da428f6a5e5b5144d4393850029",
  "source": "pragma solidity ^0.5.7;\n\ncontract SaiTubMock {\n    uint256                   public  cupi;\n    mapping (bytes32 => Cup)  public  cups;\n\n    struct Cup {\n        address  lad;      // CDP owner\n        uint256  ink;      // Locked collateral (in SKR)\n        uint256  art;      // Outstanding normalised debt (tax only) also called tab in function\n        uint256  ire;      // Outstanding normalised debt\n    }\n\n    uint public tabValue;\n    uint rapValue;\n\n    uint256 _chi;  // Accumulated Tax Rates\n\n    constructor (bytes32 cupId,\n        address _cupLad,\n        uint256 _cupInk,\n        uint256 _cupArt,\n        uint256 _cupIre,\n        uint256 _cupTab,\n        uint256 _uintRap)\n    public {\n        cups[cupId] = Cup(_cupLad, _cupInk, _cupArt, _cupIre);\n        tabValue = _cupTab;\n        rapValue = _uintRap;\n    }\n\n    function give(bytes32 cup, address guy) public {\n        // require(msg.sender == cups[cup].lad);\n        cups[cup].lad = guy;\n    }\n\n    //get the owner of a cup\n    function lad(bytes32 cup) public view returns (address) {\n        return cups[cup].lad;\n    }\n    \n    //get the amount of skr collateral locked in a cup\n    function ink(bytes32 cup) public view returns (uint) {\n        return cups[cup].ink;\n    }\n    \n    // get the amount of debt in a cup\n    function tab(bytes32 cup) public returns (uint) {\n        // return 50000000000000000000;\n        return tabValue;\n    }\n    // get the amount of governance debt in a cup\n    function rap(bytes32 cup) public returns (uint) {\n        // return 1937914497665704;\n        return rapValue;\n    }\n\n    function chi() public returns (uint) {\n        // return _chi;\n    }\n}",
  "sourcePath": "/Users/chris/Projects/DaiDaddy/contracts/mocks/SaiTubMock.sol",
  "compiler": {
    "name": "solc",
    "version": "0.5.7+commit.6da8b019.Emscripten.clang"
  },
  "schemaVersion": "3.0.16",
  "updatedAt": "2019-10-26T20:50:30.168Z",
  "devdoc": {
    "methods": {}
  },
  "userdoc": {
    "methods": {}
  }
}