{
  "contractName": "SaiTubMock",
  "abi": [
    {
      "constant": true,
      "inputs": [],
      "name": "wpRatio",
      "outputs": [
        {
          "name": "",
          "type": "uint256"
        }
      ],
      "payable": false,
      "stateMutability": "view",
      "type": "function"
    },
    {
      "constant": true,
      "inputs": [],
      "name": "daiContract",
      "outputs": [
        {
          "name": "",
          "type": "address"
        }
      ],
      "payable": false,
      "stateMutability": "view",
      "type": "function"
    },
    {
      "constant": true,
      "inputs": [],
      "name": "wethContract",
      "outputs": [
        {
          "name": "",
          "type": "address"
        }
      ],
      "payable": false,
      "stateMutability": "view",
      "type": "function"
    },
    {
      "constant": true,
      "inputs": [],
      "name": "cupi",
      "outputs": [
        {
          "name": "",
          "type": "uint256"
        }
      ],
      "payable": false,
      "stateMutability": "view",
      "type": "function"
    },
    {
      "constant": true,
      "inputs": [],
      "name": "tabValue",
      "outputs": [
        {
          "name": "",
          "type": "uint256"
        }
      ],
      "payable": false,
      "stateMutability": "view",
      "type": "function"
    },
    {
      "constant": true,
      "inputs": [],
      "name": "etherPrice",
      "outputs": [
        {
          "name": "",
          "type": "uint256"
        }
      ],
      "payable": false,
      "stateMutability": "view",
      "type": "function"
    },
    {
      "constant": true,
      "inputs": [],
      "name": "chiValue",
      "outputs": [
        {
          "name": "",
          "type": "uint256"
        }
      ],
      "payable": false,
      "stateMutability": "view",
      "type": "function"
    },
    {
      "constant": true,
      "inputs": [],
      "name": "perValue",
      "outputs": [
        {
          "name": "",
          "type": "uint256"
        }
      ],
      "payable": false,
      "stateMutability": "view",
      "type": "function"
    },
    {
      "constant": true,
      "inputs": [
        {
          "name": "",
          "type": "address"
        }
      ],
      "name": "peth",
      "outputs": [
        {
          "name": "",
          "type": "uint256"
        }
      ],
      "payable": false,
      "stateMutability": "view",
      "type": "function"
    },
    {
      "constant": true,
      "inputs": [
        {
          "name": "",
          "type": "bytes32"
        }
      ],
      "name": "cups",
      "outputs": [
        {
          "name": "lad",
          "type": "address"
        },
        {
          "name": "ink",
          "type": "uint256"
        },
        {
          "name": "art",
          "type": "uint256"
        },
        {
          "name": "ire",
          "type": "uint256"
        }
      ],
      "payable": false,
      "stateMutability": "view",
      "type": "function"
    },
    {
      "inputs": [
        {
          "name": "cupId",
          "type": "bytes32"
        },
        {
          "name": "_cupLad",
          "type": "address"
        },
        {
          "name": "_cupInk",
          "type": "uint256"
        },
        {
          "name": "_cupArt",
          "type": "uint256"
        },
        {
          "name": "_cupIre",
          "type": "uint256"
        },
        {
          "name": "_cupTab",
          "type": "uint256"
        },
        {
          "name": "_uintRap",
          "type": "uint256"
        },
        {
          "name": "_per",
          "type": "uint256"
        },
        {
          "name": "_daiTokenAddress",
          "type": "address"
        },
        {
          "name": "_wethTokenAddress",
          "type": "address"
        },
        {
          "name": "_wpRatio",
          "type": "uint256"
        },
        {
          "name": "_etherPrice",
          "type": "uint256"
        }
      ],
      "payable": false,
      "stateMutability": "nonpayable",
      "type": "constructor"
    },
    {
      "anonymous": false,
      "inputs": [
        {
          "indexed": false,
          "name": "cr",
          "type": "uint256"
        }
      ],
      "name": "log",
      "type": "event"
    },
    {
      "constant": false,
      "inputs": [
        {
          "name": "cup",
          "type": "bytes32"
        },
        {
          "name": "guy",
          "type": "address"
        }
      ],
      "name": "give",
      "outputs": [],
      "payable": false,
      "stateMutability": "nonpayable",
      "type": "function"
    },
    {
      "constant": true,
      "inputs": [
        {
          "name": "cup",
          "type": "bytes32"
        }
      ],
      "name": "lad",
      "outputs": [
        {
          "name": "",
          "type": "address"
        }
      ],
      "payable": false,
      "stateMutability": "view",
      "type": "function"
    },
    {
      "constant": true,
      "inputs": [
        {
          "name": "cup",
          "type": "bytes32"
        }
      ],
      "name": "ink",
      "outputs": [
        {
          "name": "",
          "type": "uint256"
        }
      ],
      "payable": false,
      "stateMutability": "view",
      "type": "function"
    },
    {
      "constant": false,
      "inputs": [
        {
          "name": "cup",
          "type": "bytes32"
        }
      ],
      "name": "tab",
      "outputs": [
        {
          "name": "",
          "type": "uint256"
        }
      ],
      "payable": false,
      "stateMutability": "nonpayable",
      "type": "function"
    },
    {
      "constant": false,
      "inputs": [
        {
          "name": "cup",
          "type": "bytes32"
        }
      ],
      "name": "rap",
      "outputs": [
        {
          "name": "",
          "type": "uint256"
        }
      ],
      "payable": false,
      "stateMutability": "nonpayable",
      "type": "function"
    },
    {
      "constant": false,
      "inputs": [],
      "name": "chi",
      "outputs": [
        {
          "name": "",
          "type": "uint256"
        }
      ],
      "payable": false,
      "stateMutability": "nonpayable",
      "type": "function"
    },
    {
      "constant": false,
      "inputs": [],
      "name": "per",
      "outputs": [
        {
          "name": "",
          "type": "uint256"
        }
      ],
      "payable": false,
      "stateMutability": "nonpayable",
      "type": "function"
    },
    {
      "constant": false,
      "inputs": [
        {
          "name": "cup",
          "type": "bytes32"
        },
        {
          "name": "wad",
          "type": "uint256"
        }
      ],
      "name": "free",
      "outputs": [],
      "payable": false,
      "stateMutability": "nonpayable",
      "type": "function"
    },
    {
      "constant": false,
      "inputs": [
        {
          "name": "wad",
          "type": "uint256"
        }
      ],
      "name": "exit",
      "outputs": [],
      "payable": false,
      "stateMutability": "nonpayable",
      "type": "function"
    },
    {
      "constant": false,
      "inputs": [
        {
          "name": "cup",
          "type": "bytes32"
        },
        {
          "name": "wad",
          "type": "uint256"
        }
      ],
      "name": "wipe",
      "outputs": [],
      "payable": false,
      "stateMutability": "nonpayable",
      "type": "function"
    },
    {
      "constant": true,
      "inputs": [
        {
          "name": "_lad",
          "type": "address"
        }
      ],
      "name": "balancerOf",
      "outputs": [
        {
          "name": "",
          "type": "uint256"
        }
      ],
      "payable": false,
      "stateMutability": "view",
      "type": "function"
    }
  ],
  "bytecode": "0x608060405234801561001057600080fd5b5060405161018080610a09833981018060405261018081101561003257600080fd5b50805160208083015160408085015160608087015160808089015160a08a015160c08b015160e08c01516101008d01516101208e01516101408f0151610160909f01518b519788018c526001600160a01b039c8d168852878e019a8b52878c0198895298870195865260009d8e5260019c8d9052998d20955186546001600160a01b0319908116918d1691909117875598519b86019b909b5594516002850155915160039384015590915560045560065560079690965560089590955560098054861693831693909317909255600a80549094169116179091556108ed90819061011c90396000f3fe608060405234801561001057600080fd5b50600436106101375760003560e01c8063913216df116100b8578063c92aecc41161007c578063c92aecc41461029b578063d48210bc146102a3578063de5f5517146102ab578063f2ca787c146102c8578063f7c8d634146102ee578063fdac00251461030b57610137565b8063913216df146102345780639e3079551461023c578063a5cd184e14610244578063afea99fc14610267578063baa8529c1461026f57610137565b806349955431116100ff57806349955431146101c55780636f78ee0d146101cd57806373b38101146101ea5780637ec9c3b81461020f5780637f8661a11461021757610137565b806319cc64161461013c5780631f3634ed1461017457806327e7f355146101915780632ce8b913146101995780634780eac1146101bd575b600080fd5b6101626004803603602081101561015257600080fd5b50356001600160a01b0316610358565b60408051918252519081900360200190f35b6101626004803603602081101561018a57600080fd5b5035610373565b610162610389565b6101a161038f565b604080516001600160a01b039092168252519081900360200190f35b6101a161039e565b6101626103ad565b610162600480360360208110156101e357600080fd5b50356103b3565b61020d6004803603604081101561020057600080fd5b50803590602001356103ba565b005b61016261051e565b61020d6004803603602081101561022d57600080fd5b5035610524565b610162610640565b610162610646565b61020d6004803603604081101561025a57600080fd5b508035906020013561064c565b6101626107eb565b61020d6004803603604081101561028557600080fd5b50803590602001356001600160a01b03166107f1565b61016261081f565b610162610825565b6101a1600480360360208110156102c157600080fd5b503561082b565b610162600480360360208110156102de57600080fd5b50356001600160a01b0316610846565b6101626004803603602081101561030457600080fd5b5035610858565b6103286004803603602081101561032157600080fd5b503561085f565b604080516001600160a01b0390951685526020850193909352838301919091526060830152519081900360800190f35b6001600160a01b031660009081526002602052604090205490565b6000908152600160208190526040909120015490565b60075481565b6009546001600160a01b031681565b600a546001600160a01b031681565b60005481565b5060045490565b60095460408051600160e11b636eb1769f028152336004820152306024820152905183926001600160a01b03169163dd62ed3e916044808301926020929190829003018186803b15801561040d57600080fd5b505afa158015610421573d6000803e3d6000fd5b505050506040513d602081101561043757600080fd5b5051101561047957604051600160e51b62461bcd02815260040180806020018281038252602e815260200180610894602e913960400191505060405180910390fd5b60095460408051600160e01b6323b872dd0281523360048201523060248201526044810184905290516001600160a01b03909216916323b872dd916064808201926020929091908290030181600087803b1580156104d657600080fd5b505af11580156104ea573d6000803e3d6000fd5b505050506040513d602081101561050057600080fd5b50506000918252600160205260409091206002018054919091039055565b60065490565b3360009081526002602052604090205481111561058b5760408051600160e51b62461bcd02815260206004820152600f60248201527f4e6f7420656e6f75676820706574680000000000000000000000000000000000604482015290519081900360640190fd5b33600090815260026020526040812080548390039055633b9aca006105ae61051e565b816105b557fe5b600a5460408051600160e01b63a9059cbb0281523360048201526024810187905290519390920493506001600160a01b03169163a9059cbb916044808201926020929091908290030181600087803b15801561061057600080fd5b505af1158015610624573d6000803e3d6000fd5b505050506040513d602081101561063a57600080fd5b50505050565b60035481565b60085481565b6000828152600160205260409020546001600160a01b031633146106ba5760408051600160e51b62461bcd02815260206004820152601f60248201527f796f7520617265206e6f7420746865206c6164206f6620746869732063757000604482015290519081900360640190fd5b600082815260016020819052604082200180548390039055633b9aca006106df61051e565b816106e657fe5b6000858152600160205260409020600201549190049150156107d1576000838152600160208190526040822060028101546008549190920154670de0b6b3a7640000909202910283028161073657fe5b0490507ff82c50f1848136e6c140b186ea0c768b7deda5efffe42c25e96336a90b26c744816040518082815260200191505060405180910390a16714d1120d7b16000081116107cf5760408051600160e51b62461bcd02815260206004820152601e60248201527f43616e7420667265652074686174206d75636820636f6c6c61746572616c0000604482015290519081900360640190fd5b505b503360009081526002602052604090208054909101905550565b60055481565b60009182526001602052604090912080546001600160a01b0319166001600160a01b03909216919091179055565b60055490565b60065481565b6000908152600160205260409020546001600160a01b031690565b60026020526000908152604090205481565b5060035490565b600160208190526000918252604090912080549181015460028201546003909201546001600160a01b03909316929091908456fe436f6e747261637420686173206e6f74206265656e206772616e74656420656e6f75676820616c6c6f77616e6365a165627a7a7230582064b72caedec2730590d649aabcaee5d6581e8f010c7ea5351423bb1f1d62077d0029",
  "source": "pragma solidity ^0.5.7;\n\nimport \"../ERC20Interface.sol\";\n\ncontract SaiTubMock {\n    uint256 public cupi; //number of cups\n    mapping(bytes32 => Cup) public cups; //mapping of cups\n\n    //keep an internal account of the peth people have. this prevents the need for creating a third token\n    mapping(address => uint256) public peth;\n\n    struct Cup {\n        address lad; // CDP owner\n        uint256 ink; // Locked collateral (in SKR)\n        uint256 art; // Outstanding normalised debt (tax only) also called tab in function\n        uint256 ire; // Outstanding normalised debt\n    }\n\n    // constants. stored to mimic the maker system\n    uint256 public tabValue;\n    uint256 rapValue;\n    uint256 public chiValue; // Accumulated Tax Rates\n    uint256 public perValue; // weth to peth ratio\n    uint256 public wpRatio;\n    uint256 public etherPrice;\n\n    ERC20 public daiContract;\n    ERC20 public wethContract;\n\n    event log(uint256 cr);\n\n    constructor(\n        bytes32 cupId,\n        address _cupLad,\n        uint256 _cupInk,\n        uint256 _cupArt,\n        uint256 _cupIre,\n        uint256 _cupTab,\n        uint256 _uintRap,\n        uint256 _per,\n        address _daiTokenAddress,\n        address _wethTokenAddress,\n        uint256 _wpRatio,\n        uint256 _etherPrice\n    ) public {\n        //create a new cup\n        cups[cupId] = Cup(_cupLad, _cupInk, _cupArt, _cupIre);\n\n        //set cup state variables\n        tabValue = _cupTab;\n        rapValue = _uintRap;\n        perValue = _per;\n        wpRatio = _wpRatio;\n        etherPrice = _etherPrice;\n\n        //init instance of the dai contract for testing\n        daiContract = ERC20(_daiTokenAddress);\n        wethContract = ERC20(_wethTokenAddress);\n    }\n\n    function give(bytes32 cup, address guy) public {\n        // require(msg.sender == cups[cup].lad);\n        cups[cup].lad = guy;\n    }\n\n    //get the owner of a cup\n    function lad(bytes32 cup) public view returns (address) {\n        return cups[cup].lad;\n    }\n\n    //get the amount of skr collateral locked in a cup\n    function ink(bytes32 cup) public view returns (uint256) {\n        return cups[cup].ink;\n    }\n\n    // get the amount of debt in a cup\n    function tab(bytes32 cup) public returns (uint256) {\n        // return 50000000000000000000;\n        return tabValue;\n    }\n    // get the amount of governance debt in a cup\n    function rap(bytes32 cup) public returns (uint256) {\n        // return 1937914497665704;\n        return rapValue;\n    }\n\n    function chi() public returns (uint256) {\n        return chiValue;\n    }\n\n    function per() public returns (uint256) {\n        return perValue;\n    }\n\n    function free(bytes32 cup, uint256 wad) public {\n        require(msg.sender == cups[cup].lad, \"you are not the lad of this cup\");\n\n        //first we subtract the wad from the cdp and then check that it is still safe. if not revert\n        cups[cup].ink = cups[cup].ink - wad;\n\n        uint256 _wpRatio = per() / (10**9);\n\n        if (cups[cup].art > 0) {\n            uint256 cr = (cups[cup].ink * etherPrice * _wpRatio) / (cups[cup].art * 10**18);\n            //checks that the collateralization ratio is bigger than the 150% collateral requirement of a cdp\n            //this is validated using the safe function in maker's tub contract. is is easier to mock it like this.\n            emit log(cr);\n            require(cr > 150 * 10 ** 16, \"Cant free that much collateral\");\n        }\n        //allocate peth to the user\n        peth[msg.sender] = peth[msg.sender] + wad;\n    }\n\n    //convert peth to weth tokens\n    function exit(uint256 wad) public {\n        require(peth[msg.sender] >= wad, \"Not enough peth\");\n        peth[msg.sender] = peth[msg.sender] - wad;\n        uint256 _wpRatio = per() / (10**9);\n        // uint256 tokensToSend = wad * _wpRatio / (10 ** 18);\n        wethContract.transfer(msg.sender, wad);\n    }\n\n    //simulate wipe by taking dai from user and subtracting debt(art) from the cup\n    function wipe(bytes32 cup, uint256 wad) public {\n        require(\n            daiContract.allowance(msg.sender, address(this)) >= wad,\n            \"Contract has not been granted enough allowance\"\n        );\n        daiContract.transferFrom(msg.sender, address(this), wad); //take the dai from the sender\n        cups[cup].art = cups[cup].art - wad;\n    }\n\n    // function is not part of tub. used to test mock\n    function balancerOf(address _lad) public view returns (uint256) {\n        return peth[_lad];\n    }\n}\n",
  "sourcePath": "/Users/chris/Projects/DaiDaddy/contracts/mocks/SaiTubMock.sol",
  "compiler": {
    "name": "solc",
    "version": "0.5.7+commit.6da8b019.Emscripten.clang"
  },
  "schemaVersion": "3.0.16",
  "updatedAt": "2019-10-28T07:04:29.223Z",
  "devdoc": {
    "methods": {}
  },
  "userdoc": {
    "methods": {}
  }
}