{
  "contractName": "Unwinder",
  "abi": [
    {
      "constant": true,
      "inputs": [],
      "name": "daiContract",
      "outputs": [
        {
          "name": "",
          "type": "address"
        }
      ],
      "payable": false,
      "stateMutability": "view",
      "type": "function"
    },
    {
      "constant": true,
      "inputs": [],
      "name": "wethContract",
      "outputs": [
        {
          "name": "",
          "type": "address"
        }
      ],
      "payable": false,
      "stateMutability": "view",
      "type": "function"
    },
    {
      "constant": true,
      "inputs": [],
      "name": "kyberNetworkProxyContract",
      "outputs": [
        {
          "name": "",
          "type": "address"
        }
      ],
      "payable": false,
      "stateMutability": "view",
      "type": "function"
    },
    {
      "constant": true,
      "inputs": [],
      "name": "saiTubContract",
      "outputs": [
        {
          "name": "",
          "type": "address"
        }
      ],
      "payable": false,
      "stateMutability": "view",
      "type": "function"
    },
    {
      "constant": true,
      "inputs": [
        {
          "name": "",
          "type": "address"
        }
      ],
      "name": "cupOwners",
      "outputs": [
        {
          "name": "",
          "type": "bytes32"
        }
      ],
      "payable": false,
      "stateMutability": "view",
      "type": "function"
    },
    {
      "constant": true,
      "inputs": [],
      "name": "medianizerContract",
      "outputs": [
        {
          "name": "",
          "type": "address"
        }
      ],
      "payable": false,
      "stateMutability": "view",
      "type": "function"
    },
    {
      "inputs": [
        {
          "name": "_saiTubAddress",
          "type": "address"
        },
        {
          "name": "_medianizerAddress",
          "type": "address"
        },
        {
          "name": "_kyberNetworkProxyAddress",
          "type": "address"
        },
        {
          "name": "_daiTokenAddress",
          "type": "address"
        },
        {
          "name": "_wethTokenAddress",
          "type": "address"
        },
        {
          "name": "_daiDaddyFeeCollector",
          "type": "address"
        }
      ],
      "payable": false,
      "stateMutability": "nonpayable",
      "type": "constructor"
    },
    {
      "constant": true,
      "inputs": [
        {
          "name": "a",
          "type": "uint256"
        },
        {
          "name": "m",
          "type": "uint256"
        }
      ],
      "name": "ceil",
      "outputs": [
        {
          "name": "",
          "type": "uint256"
        }
      ],
      "payable": false,
      "stateMutability": "pure",
      "type": "function"
    },
    {
      "constant": true,
      "inputs": [
        {
          "name": "ink",
          "type": "uint256"
        },
        {
          "name": "art",
          "type": "uint256"
        },
        {
          "name": "etherPrice",
          "type": "uint256"
        },
        {
          "name": "wpRatio",
          "type": "uint256"
        }
      ],
      "name": "collateralizationRatio",
      "outputs": [
        {
          "name": "",
          "type": "uint256"
        }
      ],
      "payable": false,
      "stateMutability": "pure",
      "type": "function"
    },
    {
      "constant": true,
      "inputs": [
        {
          "name": "cr",
          "type": "uint256"
        }
      ],
      "name": "unwindsNeeded",
      "outputs": [
        {
          "name": "",
          "type": "uint256"
        }
      ],
      "payable": false,
      "stateMutability": "pure",
      "type": "function"
    },
    {
      "constant": true,
      "inputs": [
        {
          "name": "ink",
          "type": "uint256"
        },
        {
          "name": "art",
          "type": "uint256"
        },
        {
          "name": "etherPrice",
          "type": "uint256"
        },
        {
          "name": "wpRatio",
          "type": "uint256"
        }
      ],
      "name": "freeableCollateral",
      "outputs": [
        {
          "name": "",
          "type": "uint256"
        }
      ],
      "payable": false,
      "stateMutability": "view",
      "type": "function"
    },
    {
      "constant": true,
      "inputs": [
        {
          "name": "ink",
          "type": "uint256"
        },
        {
          "name": "art",
          "type": "uint256"
        },
        {
          "name": "etherPrice",
          "type": "uint256"
        },
        {
          "name": "",
          "type": "uint256"
        }
      ],
      "name": "freeableCollateralWeth",
      "outputs": [
        {
          "name": "",
          "type": "uint256"
        }
      ],
      "payable": false,
      "stateMutability": "view",
      "type": "function"
    },
    {
      "constant": false,
      "inputs": [
        {
          "name": "_cup",
          "type": "bytes32"
        }
      ],
      "name": "proveOwnershipOfCDP",
      "outputs": [],
      "payable": false,
      "stateMutability": "nonpayable",
      "type": "function"
    },
    {
      "constant": true,
      "inputs": [
        {
          "name": "_etherToSell",
          "type": "uint256"
        }
      ],
      "name": "ethToDaiKyberPrice",
      "outputs": [
        {
          "name": "expectedRate",
          "type": "uint256"
        },
        {
          "name": "slippageRate",
          "type": "uint256"
        }
      ],
      "payable": false,
      "stateMutability": "view",
      "type": "function"
    },
    {
      "constant": false,
      "inputs": [
        {
          "name": "_srcQty",
          "type": "uint256"
        }
      ],
      "name": "swapWethToDai",
      "outputs": [
        {
          "name": "",
          "type": "uint256"
        }
      ],
      "payable": false,
      "stateMutability": "nonpayable",
      "type": "function"
    },
    {
      "constant": false,
      "inputs": [
        {
          "name": "_cup",
          "type": "bytes32"
        }
      ],
      "name": "drawMaxWethFromCDP",
      "outputs": [
        {
          "name": "",
          "type": "uint256"
        }
      ],
      "payable": false,
      "stateMutability": "nonpayable",
      "type": "function"
    },
    {
      "constant": true,
      "inputs": [],
      "name": "getEtherPrice",
      "outputs": [
        {
          "name": "",
          "type": "uint256"
        }
      ],
      "payable": false,
      "stateMutability": "view",
      "type": "function"
    },
    {
      "constant": true,
      "inputs": [],
      "name": "getWpRatio",
      "outputs": [
        {
          "name": "",
          "type": "uint256"
        }
      ],
      "payable": false,
      "stateMutability": "view",
      "type": "function"
    },
    {
      "constant": false,
      "inputs": [],
      "name": "giveCDPBack",
      "outputs": [],
      "payable": false,
      "stateMutability": "nonpayable",
      "type": "function"
    },
    {
      "constant": false,
      "inputs": [
        {
          "name": "_cup",
          "type": "bytes32"
        }
      ],
      "name": "unwindCDP",
      "outputs": [],
      "payable": false,
      "stateMutability": "nonpayable",
      "type": "function"
    }
  ],
  "bytecode": "0x60806040526714f498ffead700006000553480156200001d57600080fd5b5060405160c0806200166f833981018060405260c08110156200003f57600080fd5b5080516020808301516040808501516060860151608087015160a090970151600180546001600160a01b03199081166001600160a01b03808b1691909117909255600280548216838916179055600380548216838716179081905560048054831684871617808255600580548516868f16179055600780549094168587161790935587517f095ea7b3000000000000000000000000000000000000000000000000000000008152918416908201526a52b7d2dcc80cd2e400000060248201529551989996989497939695929491169263095ea7b392604480820193918290030181600087803b1580156200013257600080fd5b505af115801562000147573d6000803e3d6000fd5b505050506040513d60208110156200015e57600080fd5b5051620001b7576040517f08c379a000000000000000000000000000000000000000000000000000000000815260040180806020018281038252602b81526020018062001644602b913960400191505060405180910390fd5b60048054600154604080517f095ea7b30000000000000000000000000000000000000000000000000000000081526001600160a01b03928316948101949094526a52b7d2dcc80cd2e400000060248501525191169163095ea7b39160448083019260209291908290030181600087803b1580156200023457600080fd5b505af115801562000249573d6000803e3d6000fd5b505050506040513d60208110156200026057600080fd5b5051620002b9576040517f08c379a000000000000000000000000000000000000000000000000000000000815260040180806020018281038252602b81526020018062001644602b913960400191505060405180910390fd5b600554600354604080517f095ea7b30000000000000000000000000000000000000000000000000000000081526001600160a01b0392831660048201526a52b7d2dcc80cd2e400000060248201529051919092169163095ea7b39160448083019260209291908290030181600087803b1580156200033657600080fd5b505af11580156200034b573d6000803e3d6000fd5b505050506040513d60208110156200036257600080fd5b5051620003bb576040517f08c379a000000000000000000000000000000000000000000000000000000000815260040180806020018281038252602b81526020018062001644602b913960400191505060405180910390fd5b50505050505061127380620003d16000396000f3fe608060405234801561001057600080fd5b50600436106101215760003560e01c8063797f7c5f116100ad578063ca7c4dba11610071578063ca7c4dba146102ba578063e5293973146102c2578063f2b704f9146102df578063fa24d1411461030e578063fd7e28931461031657610121565b8063797f7c5f146102325780638587be6e1461023a57806397a8d81d1461025d578063b967e9c114610265578063becad5951461029457610121565b80634e808ab9116100f45780634e808ab91461018e57806355a8c3c31461019657806357e6dbba146101cc5780637256511e146101fb578063785250da1461022a57610121565b806306ef4a51146101265780632ce8b9131461014557806339261d0f146101695780634780eac114610186575b600080fd5b6101436004803603602081101561013c57600080fd5b5035610333565b005b61014d6109df565b604080516001600160a01b039092168252519081900360200190f35b6101436004803603602081101561017f57600080fd5b50356109ee565b61014d610ac8565b610143610ad7565b6101b3600480360360208110156101ac57600080fd5b5035610ad9565b6040805192835260208301919091528051918290030190f35b6101e9600480360360208110156101e257600080fd5b5035610b7d565b60408051918252519081900360200190f35b6101e96004803603608081101561021157600080fd5b5080359060208101359060408101359060600135610d0d565b61014d610d36565b6101e9610d45565b6101e96004803603604081101561025057600080fd5b5080359060200135610dd3565b61014d610ded565b6101e96004803603608081101561027b57600080fd5b5080359060208101359060408101359060600135610dfc565b6101e9600480360360208110156102aa57600080fd5b50356001600160a01b0316610e23565b6101e9610e35565b6101e9600480360360208110156102d857600080fd5b5035610eae565b6101e9600480360360808110156102f557600080fd5b5080359060208101359060408101359060600135610efc565b61014d610f21565b6101e96004803603602081101561032c57600080fd5b5035610f30565b60015460408051600160e01b63fdac00250281526004810184905290516000928392839283926001600160a01b03169163fdac0025916024808301926080929190829003018186803b15801561038857600080fd5b505afa15801561039c573d6000803e3d6000fd5b505050506040513d60808110156103b257600080fd5b50805160208201516040830151606090930151919650945090925090506001600160a01b038416301461041957604051600160e51b62461bcd02815260040180806020018281038252603e8152602001806111e0603e913960400191505060405180910390fd5b33600090815260066020526040902054851461046957604051600160e51b62461bcd0281526004018080602001828103825260328152602001806111796032913960400191505060405180910390fd5b600061047486610b7d565b905060008061048283610ad9565b9150915084670de0b6b3a76400008285028161049a57fe5b0411156109d55760008186670de0b6b3a764000002816104b657fe5b04905060006104c482610f30565b90508681101561050857604051600160e51b62461bcd0281526004018080602001828103825260288152602001806111516028913960400191505060405180910390fd5b60015460408051600160e01b6373b38101028152600481018d9052602481018a905290516001600160a01b03909216916373b381019160448082019260009290919082900301818387803b15801561055f57600080fd5b505af1158015610573573d6000803e3d6000fd5b505060015460408051600160e01b63fdac0025028152600481018f90529051600094508493506001600160a01b039092169163fdac002591602480820192608092909190829003018186803b1580156105cb57600080fd5b505afa1580156105df573d6000803e3d6000fd5b505050506040513d60808110156105f557600080fd5b5060208101516040909101519092509050801561065c5760408051600160e51b62461bcd02815260206004820152601b60248201527f4e6f7420616c6c206465627420686173206265656e2077697065640000000000604482015290519081900360640190fd5b60015460408051600160e11b6352e68c27028152600481018f90526024810185905290516001600160a01b039092169163a5cd184e9160448082019260009290919082900301818387803b1580156106b357600080fd5b505af11580156106c7573d6000803e3d6000fd5b505060015460408051600160e01b637f8661a10281526004810187905290516001600160a01b039092169350637f8661a1925060248082019260009290919082900301818387803b15801561071b57600080fd5b505af115801561072f573d6000803e3d6000fd5b50506004805460408051600160e01b6370a082310281523093810193909352516001600160a01b03909116935063a9059cbb9250339184916370a0823191602480820192602092909190829003018186803b15801561078d57600080fd5b505afa1580156107a1573d6000803e3d6000fd5b505050506040513d60208110156107b757600080fd5b50516040805163ffffffff851660e01b81526001600160a01b03909316600484015260248301919091525160448083019260209291908290030181600087803b15801561080357600080fd5b505af1158015610817573d6000803e3d6000fd5b505050506040513d602081101561082d57600080fd5b50516108835760408051600160e51b62461bcd02815260206004820152601360248201527f446169207472616e73666572207461696c656400000000000000000000000000604482015290519081900360640190fd5b60055460408051600160e01b6370a0823102815230600482015290516001600160a01b039092169163a9059cbb91339184916370a08231916024808301926020929190829003018186803b1580156108da57600080fd5b505afa1580156108ee573d6000803e3d6000fd5b505050506040513d602081101561090457600080fd5b50516040805163ffffffff851660e01b81526001600160a01b03909316600484015260248301919091525160448083019260209291908290030181600087803b15801561095057600080fd5b505af1158015610964573d6000803e3d6000fd5b505050506040513d602081101561097a57600080fd5b50516109d05760408051600160e51b62461bcd02815260206004820152601460248201527f57657468207472616e73666572206661696c6564000000000000000000000000604482015290519081900360640190fd5b505050505b5050505050505050565b6004546001600160a01b031681565b60015460408051600160e01b63fdac00250281526004810184905290516000926001600160a01b03169163fdac0025916024808301926080929190829003018186803b158015610a3d57600080fd5b505afa158015610a51573d6000803e3d6000fd5b505050506040513d6080811015610a6757600080fd5b505190506001600160a01b0381163314610ab557604051600160e51b62461bcd0281526004018080602001828103825260358152602001806111ab6035913960400191505060405180910390fd5b5033600090815260066020526040902055565b6005546001600160a01b031681565b565b6003546005546004805460408051600160e01b63809a9e550281526001600160a01b039485169381019390935290831660248301526044820185905280516000948594169263809a9e55926064808301939192829003018186803b158015610b4057600080fd5b505afa158015610b54573d6000803e3d6000fd5b505050506040513d6040811015610b6a57600080fd5b5080516020909101519094909350915050565b60015460408051600160e01b63fdac0025028152600481018490529051600092839283926001600160a01b039092169163fdac002591602480820192608092909190829003018186803b158015610bd357600080fd5b505afa158015610be7573d6000803e3d6000fd5b505050506040513d6080811015610bfd57600080fd5b50602081015160409091015190925090506000610c2a8383610c1d610e35565b610c25610d45565b610d0d565b60015460408051600160e11b6352e68c27028152600481018990526024810184905290519293506001600160a01b039091169163a5cd184e9160448082019260009290919082900301818387803b158015610c8457600080fd5b505af1158015610c98573d6000803e3d6000fd5b505060015460408051600160e01b637f8661a10281526004810186905290516001600160a01b039092169350637f8661a1925060248082019260009290919082900301818387803b158015610cec57600080fd5b505af1158015610d00573d6000803e3d6000fd5b5092979650505050505050565b600083610d1b575083610d2e565b82600054850281610d2857fe5b04850390505b949350505050565b6003546001600160a01b031681565b6000633b9aca00600160009054906101000a90046001600160a01b03166001600160a01b0316637ec9c3b86040518163ffffffff1660e01b815260040160206040518083038186803b158015610d9a57600080fd5b505afa158015610dae573d6000803e3d6000fd5b505050506040513d6020811015610dc457600080fd5b505181610dcd57fe5b04905090565b6000818260018486010381610de457fe5b04029392505050565b6001546001600160a01b031681565b600082600054850281610e0b57fe5b04670de0b6b3a7640000868402040395945050505050565b60066020526000908152604090205481565b60025460408051600160e21b6315f789a902815290516000926001600160a01b0316916357de26a4916004808301926020929190829003018186803b158015610e7d57600080fd5b505afa158015610e91573d6000803e3d6000fd5b505050506040513d6020811015610ea757600080fd5b5051905090565b6000806714d1120d7b16000083036ec097ce7bc90715b34b9f100000000081610ed357fe5b049050612710610eed655af3107a40008304612710610dd3565b81610ef457fe5b049392505050565b60008084670de0b6b3a764000002838588020281610f1657fe5b049695505050505050565b6002546001600160a01b031681565b60055460408051600160e01b6370a08231028152306004820152905160009284926001600160a01b03909116916370a0823191602480820192602092909190829003018186803b158015610f8357600080fd5b505afa158015610f97573d6000803e3d6000fd5b505050506040513d6020811015610fad57600080fd5b50511015610fef57604051600160e51b62461bcd02815260040180806020018281038252602a81526020018061121e602a913960400191505060405180910390fd5b6005546004805460035460408051600160e01b63809a9e550281526001600160a01b039586169481018590529285166024840181905260448401889052815160009630966a52b7d2dcc80cd2e40000009690959394939091169263809a9e5592606480840193829003018186803b15801561106957600080fd5b505afa15801561107d573d6000803e3d6000fd5b505050506040513d604081101561109357600080fd5b505160035460075460408051600160e01b63cb3c28c70281526001600160a01b038781166004830152602482018d9052868116604483015289811660648301526084820189905260a4820186905292831660c4820152905193985091169163cb3c28c79160e4808201926020929091908290030181600087803b15801561111957600080fd5b505af115801561112d573d6000803e3d6000fd5b505050506040513d602081101561114357600080fd5b505197965050505050505056fe4e6f7420656e6f7567682064616920726563656976656420746f207769706520616c6c206465627443616e206f6e6c7920756e77696e64204344507320746861742077657265206f776e6564206279207468652073656c6c65724f6e6c79207468652063757272656e74206f776e6572206f6620746865206375702063616e2070726f7665206f776e65727368697043616e206f6e6c7920756e77696e64204344507320746861742068617665206265656e207472616e73666572656420746f2074686520556e77696e646572446f6573206e6f74206861766520656e6f756768207765746820746f206d616b652065786368616e6765a165627a7a723058204c3bed0b27394aee4626a6f82044625b2a321c1a020b6268681f766e89618b100029546f6b656e20617070726f766520646964206e6f7420636f6d706c657465207375636365737366756c6c79",
  "source": "pragma solidity ^0.5.7;\n\n/// @title DaiDaddy 2.0: Pay back your debt by unwinding your CDP\n/// @author Chris Maree\n\nimport \"./SaiTubInterface.sol\";\nimport \"./MedianizerInterface.sol\";\nimport \"./KyberNetworkProxyInterface.sol\";\nimport \"./ERC20Interface.sol\";\n\ncontract Unwinder {\n    // constants\n    uint256 SAFE_NO_LIQUIDATION_RATE = 151 * 10**16; // a value of 1.51, just above the liquidation amount of a CDP\n\n    // contract instances for unwinding and trading\n    SaiTub public saiTubContract;\n    Medianizer public medianizerContract;\n    KyberNetworkProxy public kyberNetworkProxyContract;\n    ERC20 public daiContract;\n    ERC20 public wethContract;\n\n    // state variables\n    mapping(address => bytes32) public cupOwners; // prove that you owned the CDP before transfering it to DaiDaddy\n    address daiDaddyFeeCollector;\n\n    struct Cup {\n        address lad; // CDP owner\n        uint256 ink; // Locked collateral (in SKR)\n        uint256 art; // Outstanding normalised debt (tax only)\n        uint256 ire; // Outstanding normalised debt\n    }\n\n    constructor(\n        address _saiTubAddress,\n        address _medianizerAddress,\n        address _kyberNetworkProxyAddress,\n        address _daiTokenAddress,\n        address _wethTokenAddress,\n        address _daiDaddyFeeCollector\n    ) public {\n        saiTubContract = SaiTub(_saiTubAddress);\n        medianizerContract = Medianizer(_medianizerAddress);\n        kyberNetworkProxyContract = KyberNetworkProxy(\n            _kyberNetworkProxyAddress\n        );\n        daiContract = ERC20(_daiTokenAddress);\n        wethContract = ERC20(_wethTokenAddress);\n        daiDaddyFeeCollector = _daiDaddyFeeCollector;\n\n        require(\n            daiContract.approve(address(kyberNetworkProxyContract), 10**26),\n            \"Token approve did not complete successfully\"\n        );\n        require(\n            daiContract.approve(address(saiTubContract), 10**26),\n            \"Token approve did not complete successfully\"\n        );\n        require(\n            wethContract.approve(address(kyberNetworkProxyContract), 10**26),\n            \"Token approve did not complete successfully\"\n        );\n    }\n\n    // round number a to b decimal points\n    function ceil(uint256 a, uint256 m) public pure returns (uint256) {\n        return ((a + m - 1) / m) * m;\n    }\n\n    // takes in all the information about a CDP and returns the current collateralization ratio scaled *10 ^ 18\n    // uint256  ink             Locked collateral (in Weth)\n    // uint256  art             Outstanding normalised debt(including tax)\n    // uint256  etherPrice      Current ether Price\n    // uint256  wpRatio         Weth to Peth Ratio\n    function collateralizationRatio(\n        uint256 ink,\n        uint256 art,\n        uint256 etherPrice,\n        uint256 wpRatio\n    ) public pure returns (uint256) {\n        uint256 cr = (ink * etherPrice * wpRatio) / (art * 10**18);\n        return cr;\n    }\n\n    // returns an interger representing how many unwinds are needed for a given collateralization ratio. The use of\n    // the ceil function and the scaling is to act as a round up\n    function unwindsNeeded(uint256 cr) public pure returns (uint256) {\n        //1.5 here represents the collateralization ratio needed to not get liquidated as a CDP on makerDao\n        uint256 repaymentsNeeded = (1 * 10**(18 * 2)) / (cr - 1.5 * 10**18);\n        return ceil(repaymentsNeeded / (10**14), 10000) / 10000;\n    }\n\n    function freeableCollateral(\n        uint256 ink,\n        uint256 art,\n        uint256 etherPrice,\n        uint256 wpRatio\n    ) public view returns (uint256) {\n        return\n            (ink * wpRatio) /\n            (10**18) -\n            (art * SAFE_NO_LIQUIDATION_RATE) /\n            etherPrice;\n    }\n    function freeableCollateralWeth(\n        uint256 ink,\n        uint256 art,\n        uint256 etherPrice,\n        uint256\n    ) public view returns (uint256) {\n        if (art == 0) return ink; //if there is no debt then all ink is freeable\n        return ink - (art * SAFE_NO_LIQUIDATION_RATE) / etherPrice;\n    }\n\n    // called at step 1 to show DaiDaddy that you own the CDP.\n    function proveOwnershipOfCDP(bytes32 _cup) public {\n        (address lad, , , ) = saiTubContract.cups(_cup);\n        require(\n            lad == msg.sender,\n            \"Only the current owner of the cup can prove ownership\"\n        );\n        cupOwners[msg.sender] = _cup;\n    }\n\n    // See how much Dai can be gained from trading against keyber for the freed Ether\n    function ethToDaiKyberPrice(uint256 _etherToSell)\n        public\n        view\n        returns (uint256 expectedRate, uint256 slippageRate)\n    {\n        (expectedRate, slippageRate) = kyberNetworkProxyContract\n            .getExpectedRate(wethContract, daiContract, _etherToSell);\n    }\n\n    // Exchange x amount of weth for dai at the best price.\n    function swapWethToDai(uint256 _srcQty) public returns (uint256) {\n        require(\n            wethContract.balanceOf(address(this)) >= _srcQty,\n            \"Does not have enough weth to make exchange\"\n        );\n        uint256 _minConversionRate;\n        address _destAddress = address(this);\n        uint256 _maxDestAmount = 10**26; // 1 billion of the dest token.\n        ERC20 _srcToken = wethContract;\n        ERC20 _destToken = daiContract;\n\n        // Get the minimum conversion rate\n        (_minConversionRate, ) = kyberNetworkProxyContract.getExpectedRate(\n            _srcToken,\n            _destToken,\n            _srcQty\n        );\n\n        // Swap the ERC20 token and send to _destAddress\n        return\n            kyberNetworkProxyContract.trade(\n                _srcToken, //_srcToken source token contract address\n                _srcQty, //_srcQty amount of source tokens\n                _destToken, //_destToken destination token contract address\n                _destAddress, //_destAddress address to send swapped tokens to\n                _maxDestAmount, //_maxDestAmount address to send swapped tokens to\n                _minConversionRate, //bottom end rate that if below trade will revert\n                daiDaddyFeeCollector //walletId for fee sharing program\n            );\n    }\n\n    // free the maximum amount of ether possible from the CDP without liquidating it\n    function drawMaxWethFromCDP(bytes32 _cup) public returns (uint256) {\n        // get cup info\n        (, uint256 ink, uint256 art, ) = saiTubContract.cups(_cup);\n\n        // calculate how much ether can be freed from the cup\n        uint256 freeableWeth = freeableCollateralWeth(\n            ink,\n            art,\n            getEtherPrice(),\n            getWpRatio()\n        );\n\n        // free peth from cdp\n        saiTubContract.free(_cup, freeableWeth);\n\n        //convert peth to Weth //this should include the wpratio...\n        saiTubContract.exit(freeableWeth);\n\n        return freeableWeth;\n    }\n\n    function getEtherPrice() public view returns (uint256) {\n        return uint256(medianizerContract.read());\n    }\n\n    //the per value stores the weth to peth ratio in the maker contracts.\n    //this is scaled by 10^27 so by devided by 10^9 get ouput wp ratio *10^18\n    function getWpRatio() public view returns (uint256) {\n        return saiTubContract.per() / (10**9);\n    }\n\n    function giveCDPBack() public {}\n\n    function unwindCDP(bytes32 _cup) public {\n        (address lad, uint256 ink, uint256 art, uint256 ire) = saiTubContract\n            .cups(_cup);\n        require(\n            lad == address(this),\n            \"Can only unwind CDPs that have been transfered to the Unwinder\"\n        );\n        require(\n            cupOwners[msg.sender] == _cup,\n            \"Can only unwind CDPs that were owned by the seller\"\n        );\n\n        uint256 freedWeth = drawMaxWethFromCDP(_cup);\n\n        (uint256 expectedRate, uint256 slippageRate) = ethToDaiKyberPrice(\n            freedWeth\n        );\n\n        //the free collateral is more than enough to pay off debt in one go.\n        //use the slippage rate to make sure we get enough dai to pay off the debt. This can be\n        // further optomized into the future\n        if ((freedWeth * slippageRate) / (10**18) > art) {\n            uint256 etherNeededToSend = (art * 10**18) / slippageRate;\n            uint256 daiReceived = swapWethToDai(etherNeededToSend);\n            require(\n                daiReceived >= art,\n                \"Not enough dai received to wipe all debt\"\n            );\n            saiTubContract.wipe(_cup, art);\n\n            //get the debt and check it is all been wiped\n            (, uint256 inkEnd, uint256 artEnd, ) = saiTubContract.cups(_cup);\n            require(artEnd == 0, \"Not all debt has been wiped\");\n\n            // draw out the remaining ether\n            saiTubContract.free(_cup, inkEnd);\n\n            //convert peth to Weth //this should include the wpratio...\n            saiTubContract.exit(inkEnd);\n\n            // send all remaining eth and weth to sender.\n            require(\n                daiContract.transfer(\n                    msg.sender,\n                    daiContract.balanceOf(address(this))\n                ),\n                \"Dai transfer tailed\"\n            );\n            require(\n                wethContract.transfer(\n                    msg.sender,\n                    wethContract.balanceOf(address(this))\n                ),\n                \"Weth transfer failed\"\n            );\n\n        }\n    }\n\n}\n",
  "sourcePath": "/Users/chris/Projects/DaiDaddy/contracts/Unwinder.sol",
  "compiler": {
    "name": "solc",
    "version": "0.5.7+commit.6da8b019.Emscripten.clang"
  },
  "schemaVersion": "3.0.16",
  "updatedAt": "2019-10-28T07:14:29.350Z",
  "devdoc": {
    "methods": {}
  },
  "userdoc": {
    "methods": {}
  }
}