{
  "contractName": "Unwinder",
  "abi": [
    {
      "constant": true,
      "inputs": [],
      "name": "dSToken",
      "outputs": [
        {
          "name": "",
          "type": "address"
        }
      ],
      "payable": false,
      "stateMutability": "view",
      "type": "function"
    },
    {
      "constant": true,
      "inputs": [],
      "name": "daiContract",
      "outputs": [
        {
          "name": "",
          "type": "address"
        }
      ],
      "payable": false,
      "stateMutability": "view",
      "type": "function"
    },
    {
      "constant": true,
      "inputs": [],
      "name": "wethContract",
      "outputs": [
        {
          "name": "",
          "type": "address"
        }
      ],
      "payable": false,
      "stateMutability": "view",
      "type": "function"
    },
    {
      "constant": true,
      "inputs": [],
      "name": "kyberNetworkProxyContract",
      "outputs": [
        {
          "name": "",
          "type": "address"
        }
      ],
      "payable": false,
      "stateMutability": "view",
      "type": "function"
    },
    {
      "constant": true,
      "inputs": [],
      "name": "saiTubContract",
      "outputs": [
        {
          "name": "",
          "type": "address"
        }
      ],
      "payable": false,
      "stateMutability": "view",
      "type": "function"
    },
    {
      "constant": true,
      "inputs": [],
      "name": "mkrToken",
      "outputs": [
        {
          "name": "",
          "type": "address"
        }
      ],
      "payable": false,
      "stateMutability": "view",
      "type": "function"
    },
    {
      "constant": true,
      "inputs": [
        {
          "name": "",
          "type": "address"
        }
      ],
      "name": "cupOwners",
      "outputs": [
        {
          "name": "",
          "type": "bytes32"
        }
      ],
      "payable": false,
      "stateMutability": "view",
      "type": "function"
    },
    {
      "constant": true,
      "inputs": [],
      "name": "medianizerContract",
      "outputs": [
        {
          "name": "",
          "type": "address"
        }
      ],
      "payable": false,
      "stateMutability": "view",
      "type": "function"
    },
    {
      "inputs": [
        {
          "name": "_saiTubAddress",
          "type": "address"
        },
        {
          "name": "_medianizerAddress",
          "type": "address"
        },
        {
          "name": "_kyberNetworkProxyAddress",
          "type": "address"
        },
        {
          "name": "_daiTokenAddress",
          "type": "address"
        },
        {
          "name": "_wethTokenAddress",
          "type": "address"
        },
        {
          "name": "_daiDaddyFeeCollector",
          "type": "address"
        },
        {
          "name": "_dSToken",
          "type": "address"
        },
        {
          "name": "_mkrToken",
          "type": "address"
        }
      ],
      "payable": false,
      "stateMutability": "nonpayable",
      "type": "constructor"
    },
    {
      "constant": true,
      "inputs": [
        {
          "name": "a",
          "type": "uint256"
        },
        {
          "name": "m",
          "type": "uint256"
        }
      ],
      "name": "ceil",
      "outputs": [
        {
          "name": "",
          "type": "uint256"
        }
      ],
      "payable": false,
      "stateMutability": "pure",
      "type": "function"
    },
    {
      "constant": true,
      "inputs": [
        {
          "name": "ink",
          "type": "uint256"
        },
        {
          "name": "art",
          "type": "uint256"
        },
        {
          "name": "etherPrice",
          "type": "uint256"
        },
        {
          "name": "wpRatio",
          "type": "uint256"
        }
      ],
      "name": "collateralizationRatio",
      "outputs": [
        {
          "name": "",
          "type": "uint256"
        }
      ],
      "payable": false,
      "stateMutability": "pure",
      "type": "function"
    },
    {
      "constant": true,
      "inputs": [
        {
          "name": "cr",
          "type": "uint256"
        }
      ],
      "name": "unwindsNeeded",
      "outputs": [
        {
          "name": "",
          "type": "uint256"
        }
      ],
      "payable": false,
      "stateMutability": "pure",
      "type": "function"
    },
    {
      "constant": true,
      "inputs": [
        {
          "name": "ink",
          "type": "uint256"
        },
        {
          "name": "art",
          "type": "uint256"
        },
        {
          "name": "etherPrice",
          "type": "uint256"
        },
        {
          "name": "wpRatio",
          "type": "uint256"
        }
      ],
      "name": "freeableCollateralEth",
      "outputs": [
        {
          "name": "",
          "type": "uint256"
        }
      ],
      "payable": false,
      "stateMutability": "view",
      "type": "function"
    },
    {
      "constant": true,
      "inputs": [
        {
          "name": "ink",
          "type": "uint256"
        },
        {
          "name": "art",
          "type": "uint256"
        },
        {
          "name": "etherPrice",
          "type": "uint256"
        }
      ],
      "name": "freeableCollateralWeth",
      "outputs": [
        {
          "name": "",
          "type": "uint256"
        }
      ],
      "payable": false,
      "stateMutability": "view",
      "type": "function"
    },
    {
      "constant": false,
      "inputs": [
        {
          "name": "_cup",
          "type": "bytes32"
        }
      ],
      "name": "proveOwnershipOfCDP",
      "outputs": [],
      "payable": false,
      "stateMutability": "nonpayable",
      "type": "function"
    },
    {
      "constant": true,
      "inputs": [
        {
          "name": "_etherToSell",
          "type": "uint256"
        }
      ],
      "name": "ethToDaiKyberPrice",
      "outputs": [
        {
          "name": "expectedRate",
          "type": "uint256"
        },
        {
          "name": "slippageRate",
          "type": "uint256"
        }
      ],
      "payable": false,
      "stateMutability": "view",
      "type": "function"
    },
    {
      "constant": false,
      "inputs": [
        {
          "name": "_srcQty",
          "type": "uint256"
        }
      ],
      "name": "swapWethToDai",
      "outputs": [
        {
          "name": "",
          "type": "uint256"
        }
      ],
      "payable": false,
      "stateMutability": "nonpayable",
      "type": "function"
    },
    {
      "constant": false,
      "inputs": [
        {
          "name": "_cup",
          "type": "bytes32"
        }
      ],
      "name": "drawMaxWethFromCDP",
      "outputs": [
        {
          "name": "",
          "type": "uint256"
        }
      ],
      "payable": false,
      "stateMutability": "nonpayable",
      "type": "function"
    },
    {
      "constant": true,
      "inputs": [],
      "name": "getEtherPrice",
      "outputs": [
        {
          "name": "",
          "type": "uint256"
        }
      ],
      "payable": false,
      "stateMutability": "view",
      "type": "function"
    },
    {
      "constant": true,
      "inputs": [],
      "name": "getWpRatio",
      "outputs": [
        {
          "name": "",
          "type": "uint256"
        }
      ],
      "payable": false,
      "stateMutability": "view",
      "type": "function"
    },
    {
      "constant": false,
      "inputs": [
        {
          "name": "_cup",
          "type": "bytes32"
        }
      ],
      "name": "giveCDPBack",
      "outputs": [],
      "payable": false,
      "stateMutability": "nonpayable",
      "type": "function"
    },
    {
      "constant": false,
      "inputs": [
        {
          "name": "_cup",
          "type": "bytes32"
        }
      ],
      "name": "unwindCDP",
      "outputs": [],
      "payable": false,
      "stateMutability": "nonpayable",
      "type": "function"
    }
  ],
  "bytecode": "0x60806040526714f498ffead700006000553480156200001d57600080fd5b506040516101008062001ad383398101806040526101008110156200004157600080fd5b81019080805190602001909291908051906020019092919080519060200190929190805190602001909291908051906020019092919080519060200190929190805190602001909291908051906020019092919050505087600160006101000a8154816001600160a01b0302191690836001600160a01b0316021790555086600260006101000a8154816001600160a01b0302191690836001600160a01b0316021790555085600360006101000a8154816001600160a01b0302191690836001600160a01b0316021790555084600460006101000a8154816001600160a01b0302191690836001600160a01b0316021790555083600560006101000a8154816001600160a01b0302191690836001600160a01b0316021790555081600660006101000a8154816001600160a01b0302191690836001600160a01b0316021790555080600760006101000a8154816001600160a01b0302191690836001600160a01b0316021790555082600960006101000a8154816001600160a01b0302191690836001600160a01b03160217905550600460009054906101000a90046001600160a01b03166001600160a01b031663095ea7b3600360009054906101000a90046001600160a01b03166a52b7d2dcc80cd2e40000006040518363ffffffff1660e01b815260040180836001600160a01b03166001600160a01b0316815260200182815260200192505050602060405180830381600087803b1580156200026657600080fd5b505af11580156200027b573d6000803e3d6000fd5b505050506040513d60208110156200029257600080fd5b5051620002eb576040517f08c379a000000000000000000000000000000000000000000000000000000000815260040180806020018281038252602b81526020018062001aa8602b913960400191505060405180910390fd5b60048054600154604080517f095ea7b30000000000000000000000000000000000000000000000000000000081526001600160a01b03928316948101949094526a52b7d2dcc80cd2e400000060248501525191169163095ea7b39160448083019260209291908290030181600087803b1580156200036857600080fd5b505af11580156200037d573d6000803e3d6000fd5b505050506040513d60208110156200039457600080fd5b5051620003ed576040517f08c379a000000000000000000000000000000000000000000000000000000000815260040180806020018281038252602b81526020018062001aa8602b913960400191505060405180910390fd5b600554600354604080517f095ea7b30000000000000000000000000000000000000000000000000000000081526001600160a01b0392831660048201526a52b7d2dcc80cd2e400000060248201529051919092169163095ea7b39160448083019260209291908290030181600087803b1580156200046a57600080fd5b505af11580156200047f573d6000803e3d6000fd5b505050506040513d60208110156200049657600080fd5b5051620004ef576040517f08c379a000000000000000000000000000000000000000000000000000000000815260040180806020018281038252602b81526020018062001aa8602b913960400191505060405180910390fd5b600654600154604080517f095ea7b30000000000000000000000000000000000000000000000000000000081526001600160a01b0392831660048201526a52b7d2dcc80cd2e400000060248201529051919092169163095ea7b39160448083019260209291908290030181600087803b1580156200056c57600080fd5b505af115801562000581573d6000803e3d6000fd5b505050506040513d60208110156200059857600080fd5b5051620005f1576040517f08c379a000000000000000000000000000000000000000000000000000000000815260040180806020018281038252602b81526020018062001aa8602b913960400191505060405180910390fd5b600754600154604080517f095ea7b30000000000000000000000000000000000000000000000000000000081526001600160a01b0392831660048201526a52b7d2dcc80cd2e400000060248201529051919092169163095ea7b39160448083019260209291908290030181600087803b1580156200066e57600080fd5b505af115801562000683573d6000803e3d6000fd5b505050506040513d60208110156200069a57600080fd5b5051620006f3576040517f08c379a000000000000000000000000000000000000000000000000000000000815260040180806020018281038252602b81526020018062001aa8602b913960400191505060405180910390fd5b505050505050505061139d806200070b6000396000f3fe608060405234801561001057600080fd5b50600436106101375760003560e01c8063797f7c5f116100b8578063becad5951161007c578063becad595146102c9578063ca7c4dba146102ef578063e5293973146102f7578063f2b704f914610314578063fa24d14114610343578063fd7e28931461034b57610137565b8063797f7c5f1461025f5780638587be6e1461026757806397a8d81d1461028a578063a001129614610292578063bb16c3741461029a57610137565b806339261d0f116100ff57806339261d0f146101df5780634780eac1146101fc57806355a8c3c31461020457806357e6dbba1461023a578063785250da1461025757610137565b806306ef4a511461013c57806309281c0c1461015b578063281e889e146101785780632881bfea1461019c5780632ce8b913146101d7575b600080fd5b6101596004803603602081101561015257600080fd5b5035610368565b005b6101596004803603602081101561017157600080fd5b5035610a14565b610180610ad5565b604080516001600160a01b039092168252519081900360200190f35b6101c5600480360360608110156101b257600080fd5b5080359060208101359060400135610ae4565b60408051918252519081900360200190f35b610180610b0c565b610159600480360360208110156101f557600080fd5b5035610b1b565b610180610bf5565b6102216004803603602081101561021a57600080fd5b5035610c04565b6040805192835260208301919091528051918290030190f35b6101c56004803603602081101561025057600080fd5b5035610ca8565b610180610e30565b6101c5610e3f565b6101c56004803603604081101561027d57600080fd5b5080359060200135610ecd565b610180610ee7565b610180610ef6565b6101c5600480360360808110156102b057600080fd5b5080359060208101359060408101359060600135610f05565b6101c5600480360360208110156102df57600080fd5b50356001600160a01b0316610f2c565b6101c5610f3e565b6101c56004803603602081101561030d57600080fd5b5035610fb7565b6101c56004803603608081101561032a57600080fd5b5080359060208101359060408101359060600135611005565b61018061102a565b6101c56004803603602081101561036157600080fd5b5035611039565b60015460408051600160e01b63fdac00250281526004810184905290516000928392839283926001600160a01b03169163fdac0025916024808301926080929190829003018186803b1580156103bd57600080fd5b505afa1580156103d1573d6000803e3d6000fd5b505050506040513d60808110156103e757600080fd5b50805160208201516040830151606090930151919650945090925090506001600160a01b038416301461044e57604051600160e51b62461bcd02815260040180806020018281038252603e81526020018061130a603e913960400191505060405180910390fd5b33600090815260086020526040902054851461049e57604051600160e51b62461bcd0281526004018080602001828103825260328152602001806112826032913960400191505060405180910390fd5b60006104a986610ca8565b90506000806104b783610c04565b9150915084670de0b6b3a7640000828502816104cf57fe5b041115610a0a5760008186670de0b6b3a764000002816104eb57fe5b04905060006104f982611039565b90508681101561053d57604051600160e51b62461bcd02815260040180806020018281038252602881526020018061125a6028913960400191505060405180910390fd5b60015460408051600160e01b6373b38101028152600481018d9052602481018a905290516001600160a01b03909216916373b381019160448082019260009290919082900301818387803b15801561059457600080fd5b505af11580156105a8573d6000803e3d6000fd5b505060015460408051600160e01b63fdac0025028152600481018f90529051600094508493506001600160a01b039092169163fdac002591602480820192608092909190829003018186803b15801561060057600080fd5b505afa158015610614573d6000803e3d6000fd5b505050506040513d608081101561062a57600080fd5b506020810151604090910151909250905080156106915760408051600160e51b62461bcd02815260206004820152601b60248201527f4e6f7420616c6c206465627420686173206265656e2077697065640000000000604482015290519081900360640190fd5b60015460408051600160e11b6352e68c27028152600481018f90526024810185905290516001600160a01b039092169163a5cd184e9160448082019260009290919082900301818387803b1580156106e857600080fd5b505af11580156106fc573d6000803e3d6000fd5b505060015460408051600160e01b637f8661a10281526004810187905290516001600160a01b039092169350637f8661a1925060248082019260009290919082900301818387803b15801561075057600080fd5b505af1158015610764573d6000803e3d6000fd5b50506004805460408051600160e01b6370a082310281523093810193909352516001600160a01b03909116935063a9059cbb9250339184916370a0823191602480820192602092909190829003018186803b1580156107c257600080fd5b505afa1580156107d6573d6000803e3d6000fd5b505050506040513d60208110156107ec57600080fd5b50516040805163ffffffff851660e01b81526001600160a01b03909316600484015260248301919091525160448083019260209291908290030181600087803b15801561083857600080fd5b505af115801561084c573d6000803e3d6000fd5b505050506040513d602081101561086257600080fd5b50516108b85760408051600160e51b62461bcd02815260206004820152601360248201527f446169207472616e73666572207461696c656400000000000000000000000000604482015290519081900360640190fd5b60055460408051600160e01b6370a0823102815230600482015290516001600160a01b039092169163a9059cbb91339184916370a08231916024808301926020929190829003018186803b15801561090f57600080fd5b505afa158015610923573d6000803e3d6000fd5b505050506040513d602081101561093957600080fd5b50516040805163ffffffff851660e01b81526001600160a01b03909316600484015260248301919091525160448083019260209291908290030181600087803b15801561098557600080fd5b505af1158015610999573d6000803e3d6000fd5b505050506040513d60208110156109af57600080fd5b5051610a055760408051600160e51b62461bcd02815260206004820152601460248201527f57657468207472616e73666572206661696c6564000000000000000000000000604482015290519081900360640190fd5b505050505b5050505050505050565b336000908152600860205260409020548114610a6457604051600160e51b62461bcd0281526004018080602001828103825260218152602001806112e96021913960400191505060405180910390fd5b60015460408051600160e21b632eaa14a70281526004810184905233602482015290516001600160a01b039092169163baa8529c9160448082019260009290919082900301818387803b158015610aba57600080fd5b505af1158015610ace573d6000803e3d6000fd5b5050505050565b6006546001600160a01b031681565b600082610af2575082610b05565b81600054840281610aff57fe5b04840390505b9392505050565b6004546001600160a01b031681565b60015460408051600160e01b63fdac00250281526004810184905290516000926001600160a01b03169163fdac0025916024808301926080929190829003018186803b158015610b6a57600080fd5b505afa158015610b7e573d6000803e3d6000fd5b505050506040513d6080811015610b9457600080fd5b505190506001600160a01b0381163314610be257604051600160e51b62461bcd0281526004018080602001828103825260358152602001806112b46035913960400191505060405180910390fd5b5033600090815260086020526040902055565b6005546001600160a01b031681565b6003546005546004805460408051600160e01b63809a9e550281526001600160a01b039485169381019390935290831660248301526044820185905280516000948594169263809a9e55926064808301939192829003018186803b158015610c6b57600080fd5b505afa158015610c7f573d6000803e3d6000fd5b505050506040513d6040811015610c9557600080fd5b5080516020909101519094909350915050565b60015460408051600160e01b63fdac0025028152600481018490529051600092839283926001600160a01b039092169163fdac002591602480820192608092909190829003018186803b158015610cfe57600080fd5b505afa158015610d12573d6000803e3d6000fd5b505050506040513d6080811015610d2857600080fd5b50602081015160409091015190925090506000610d4d8383610d48610f3e565b610ae4565b60015460408051600160e11b6352e68c27028152600481018990526024810184905290519293506001600160a01b039091169163a5cd184e9160448082019260009290919082900301818387803b158015610da757600080fd5b505af1158015610dbb573d6000803e3d6000fd5b505060015460408051600160e01b637f8661a10281526004810186905290516001600160a01b039092169350637f8661a1925060248082019260009290919082900301818387803b158015610e0f57600080fd5b505af1158015610e23573d6000803e3d6000fd5b5092979650505050505050565b6003546001600160a01b031681565b6000633b9aca00600160009054906101000a90046001600160a01b03166001600160a01b0316637ec9c3b86040518163ffffffff1660e01b815260040160206040518083038186803b158015610e9457600080fd5b505afa158015610ea8573d6000803e3d6000fd5b505050506040513d6020811015610ebe57600080fd5b505181610ec757fe5b04905090565b6000818260018486010381610ede57fe5b04029392505050565b6001546001600160a01b031681565b6007546001600160a01b031681565b600082600054850281610f1457fe5b04670de0b6b3a7640000868402040395945050505050565b60086020526000908152604090205481565b60025460408051600160e21b6315f789a902815290516000926001600160a01b0316916357de26a4916004808301926020929190829003018186803b158015610f8657600080fd5b505afa158015610f9a573d6000803e3d6000fd5b505050506040513d6020811015610fb057600080fd5b5051905090565b6000806714d1120d7b16000083036ec097ce7bc90715b34b9f100000000081610fdc57fe5b049050612710610ff6655af3107a40008304612710610ecd565b81610ffd57fe5b049392505050565b60008084670de0b6b3a76400000283858802028161101f57fe5b049695505050505050565b6002546001600160a01b031681565b60055460408051600160e01b6370a08231028152306004820152905160009284926001600160a01b03909116916370a0823191602480820192602092909190829003018186803b15801561108c57600080fd5b505afa1580156110a0573d6000803e3d6000fd5b505050506040513d60208110156110b657600080fd5b505110156110f857604051600160e51b62461bcd02815260040180806020018281038252602a815260200180611348602a913960400191505060405180910390fd5b6005546004805460035460408051600160e01b63809a9e550281526001600160a01b039586169481018590529285166024840181905260448401889052815160009630966a52b7d2dcc80cd2e40000009690959394939091169263809a9e5592606480840193829003018186803b15801561117257600080fd5b505afa158015611186573d6000803e3d6000fd5b505050506040513d604081101561119c57600080fd5b505160035460095460408051600160e01b63cb3c28c70281526001600160a01b038781166004830152602482018d9052868116604483015289811660648301526084820189905260a4820186905292831660c4820152905193985091169163cb3c28c79160e4808201926020929091908290030181600087803b15801561122257600080fd5b505af1158015611236573d6000803e3d6000fd5b505050506040513d602081101561124c57600080fd5b505197965050505050505056fe4e6f7420656e6f7567682064616920726563656976656420746f207769706520616c6c206465627443616e206f6e6c7920756e77696e64204344507320746861742077657265206f776e6564206279207468652073656c6c65724f6e6c79207468652063757272656e74206f776e6572206f6620746865206375702063616e2070726f7665206f776e65727368697043616e742073656e64206261636b20612063757020796f7520646f776e206f776e43616e206f6e6c7920756e77696e64204344507320746861742068617665206265656e207472616e73666572656420746f2074686520556e77696e646572446f6573206e6f74206861766520656e6f756768207765746820746f206d616b652065786368616e6765a165627a7a72305820de1b03459f4c7a23cf225ac116123e82a6e58fefa5c8c022b1686ef41ce59b900029546f6b656e20617070726f766520646964206e6f7420636f6d706c657465207375636365737366756c6c79",
  "source": "pragma solidity ^0.5.7;\n\n/// @title DaiDaddy 2.0: Pay back your debt by unwinding your CDP\n/// @author Chris Maree\n\nimport \"./SaiTubInterface.sol\";\nimport \"./MedianizerInterface.sol\";\nimport \"./KyberNetworkProxyInterface.sol\";\nimport \"./ERC20Interface.sol\";\n\ncontract Unwinder {\n    // constants\n    uint256 SAFE_NO_LIQUIDATION_RATE = 151 * 10**16; // a value of 1.51, just above the liquidation amount of a CDP\n\n    // contract instances for unwinding and trading\n    SaiTub public saiTubContract;\n    Medianizer public medianizerContract;\n    KyberNetworkProxy public kyberNetworkProxyContract;\n    ERC20 public daiContract;\n    ERC20 public wethContract;\n    ERC20 public dSToken;\n    ERC20 public mkrToken;\n\n    // state variables\n    mapping(address => bytes32) public cupOwners; // prove that you owned the CDP before transfering it to DaiDaddy\n    address daiDaddyFeeCollector;\n\n    struct Cup {\n        address lad; // CDP owner\n        uint256 ink; // Locked collateral (in SKR)\n        uint256 art; // Outstanding normalised debt (tax only)\n        uint256 ire; // Outstanding normalised debt\n    }\n\n    constructor(\n        address _saiTubAddress,\n        address _medianizerAddress,\n        address _kyberNetworkProxyAddress,\n        address _daiTokenAddress,\n        address _wethTokenAddress,\n        address _daiDaddyFeeCollector,\n        address _dSToken,\n        address _mkrToken\n    ) public {\n        saiTubContract = SaiTub(_saiTubAddress);\n        medianizerContract = Medianizer(_medianizerAddress);\n        kyberNetworkProxyContract = KyberNetworkProxy(\n            _kyberNetworkProxyAddress\n        );\n        daiContract = ERC20(_daiTokenAddress);\n        wethContract = ERC20(_wethTokenAddress);\n        dSToken = ERC20(_dSToken);\n        mkrToken = ERC20(_mkrToken);\n        daiDaddyFeeCollector = _daiDaddyFeeCollector;\n        \n        require(\n            daiContract.approve(address(kyberNetworkProxyContract), 10**26),\n            \"Token approve did not complete successfully\"\n        );\n        require(\n            daiContract.approve(address(saiTubContract), 10**26),\n            \"Token approve did not complete successfully\"\n        );\n        require(\n            wethContract.approve(address(kyberNetworkProxyContract), 10**26),\n            \"Token approve did not complete successfully\"\n        );\n        require(\n            dSToken.approve(address(saiTubContract), 10**26),\n            \"Token approve did not complete successfully\"\n        );\n\n        require(\n            mkrToken.approve(address(saiTubContract), 10**26),\n            \"Token approve did not complete successfully\"\n        );\n    }\n\n    // round number a to b decimal points\n    function ceil(uint256 a, uint256 m) public pure returns (uint256) {\n        return ((a + m - 1) / m) * m;\n    }\n\n    // takes in all the information about a CDP and returns the current collateralization ratio scaled *10 ^ 18\n    // uint256  ink             Locked collateral (in Weth)\n    // uint256  art             Outstanding normalised debt(including tax)\n    // uint256  etherPrice      Current ether Price\n    // uint256  wpRatio         Weth to Peth Ratio\n    function collateralizationRatio(\n        uint256 ink,\n        uint256 art,\n        uint256 etherPrice,\n        uint256 wpRatio\n    ) public pure returns (uint256) {\n        uint256 cr = (ink * etherPrice * wpRatio) / (art * 10**18);\n        return cr;\n    }\n\n    // returns an interger representing how many unwinds are needed for a given collateralization ratio. The use of\n    // the ceil function and the scaling is to act as a round up\n    function unwindsNeeded(uint256 cr) public pure returns (uint256) {\n        //1.5 here represents the collateralization ratio needed to not get liquidated as a CDP on makerDao\n        uint256 repaymentsNeeded = (1 * 10**(18 * 2)) / (cr - 1.5 * 10**18);\n        return ceil(repaymentsNeeded / (10**14), 10000) / 10000;\n    }\n\n    function freeableCollateralEth(\n        uint256 ink,\n        uint256 art,\n        uint256 etherPrice,\n        uint256 wpRatio\n    ) public view returns (uint256) {\n        return\n            (ink * wpRatio) /\n            (10**18) -\n            (art * SAFE_NO_LIQUIDATION_RATE) /\n            etherPrice;\n    }\n    function freeableCollateralWeth(\n        uint256 ink,\n        uint256 art,\n        uint256 etherPrice\n    ) public view returns (uint256) {\n        if (art == 0) return ink; //if there is no debt then all ink is freeable\n        return ink - (art * SAFE_NO_LIQUIDATION_RATE) / etherPrice;\n    }\n\n    // called at step 1 to show DaiDaddy that you own the CDP.\n    function proveOwnershipOfCDP(bytes32 _cup) public {\n        (address lad, , , ) = saiTubContract.cups(_cup);\n        require(\n            lad == msg.sender,\n            \"Only the current owner of the cup can prove ownership\"\n        );\n        cupOwners[msg.sender] = _cup;\n    }\n\n    // See how much Dai can be gained from trading against keyber for the freed Ether\n    function ethToDaiKyberPrice(uint256 _etherToSell)\n        public\n        view\n        returns (uint256 expectedRate, uint256 slippageRate)\n    {\n        (expectedRate, slippageRate) = kyberNetworkProxyContract\n            .getExpectedRate(wethContract, daiContract, _etherToSell);\n    }\n\n    // Exchange x amount of weth for dai at the best price.\n    function swapWethToDai(uint256 _srcQty) public returns (uint256) {\n        require(\n            wethContract.balanceOf(address(this)) >= _srcQty,\n            \"Does not have enough weth to make exchange\"\n        );\n        uint256 _minConversionRate;\n        address _destAddress = address(this);\n        uint256 _maxDestAmount = 10**26; // 1 billion of the dest token.\n        ERC20 _srcToken = wethContract;\n        ERC20 _destToken = daiContract;\n\n        // Get the minimum conversion rate\n        (_minConversionRate, ) = kyberNetworkProxyContract.getExpectedRate(\n            _srcToken,\n            _destToken,\n            _srcQty\n        );\n\n        // Swap the ERC20 token and send to _destAddress\n        return\n            kyberNetworkProxyContract.trade(\n                _srcToken, //_srcToken source token contract address\n                _srcQty, //_srcQty amount of source tokens\n                _destToken, //_destToken destination token contract address\n                _destAddress, //_destAddress address to send swapped tokens to\n                _maxDestAmount, //_maxDestAmount address to send swapped tokens to\n                _minConversionRate, //bottom end rate that if below trade will revert\n                daiDaddyFeeCollector //walletId for fee sharing program\n            );\n    }\n\n    // free the maximum amount of ether possible from the CDP without liquidating it\n    function drawMaxWethFromCDP(bytes32 _cup) public returns (uint256) {\n        // get cup info\n        (, uint256 ink, uint256 art, ) = saiTubContract.cups(_cup);\n\n        // calculate how much ether can be freed from the cup\n        uint256 freeableWeth = freeableCollateralWeth(\n            ink,\n            art,\n            getEtherPrice());\n\n        // free peth from cdp\n        saiTubContract.free(_cup, freeableWeth);\n\n        //convert peth to Weth //this should include the wpratio...\n        saiTubContract.exit(freeableWeth);\n\n        return freeableWeth;\n    }\n\n    function getEtherPrice() public view returns (uint256) {\n        return uint256(medianizerContract.read());\n    }\n\n    //the per value stores the weth to peth ratio in the maker contracts.\n    //this is scaled by 10^27 so by devided by 10^9 get ouput wp ratio *10^18\n    function getWpRatio() public view returns (uint256) {\n        return saiTubContract.per() / (10**9);\n    }\n\n    function giveCDPBack(bytes32 _cup) public {\n        require(cupOwners[msg.sender] == _cup, \"Cant send back a cup you down own\");\n        saiTubContract.give(_cup, msg.sender);\n    }\n\n    function unwindCDP(bytes32 _cup) public {\n        (address lad, uint256 ink, uint256 art, uint256 ire) = saiTubContract\n            .cups(_cup);\n        require(\n            lad == address(this),\n            \"Can only unwind CDPs that have been transfered to the Unwinder\"\n        );\n        require(\n            cupOwners[msg.sender] == _cup,\n            \"Can only unwind CDPs that were owned by the seller\"\n        );\n\n        uint256 freedWeth = drawMaxWethFromCDP(_cup);\n\n        (uint256 expectedRate, uint256 slippageRate) = ethToDaiKyberPrice(\n            freedWeth\n        );\n\n        //the free collateral is more than enough to pay off debt in one go.\n        //use the slippage rate to make sure we get enough dai to pay off the debt. This can be\n        // further optomized into the future\n        if ((freedWeth * slippageRate) / (10**18) > art) {\n            uint256 etherNeededToSend = (art * 10**18) / slippageRate;\n            uint256 daiReceived = swapWethToDai(etherNeededToSend);\n            require(\n                daiReceived >= art,\n                \"Not enough dai received to wipe all debt\"\n            );\n            saiTubContract.wipe(_cup, art);\n\n            //get the debt and check it is all been wiped\n            (, uint256 inkEnd, uint256 artEnd, ) = saiTubContract.cups(_cup);\n            require(artEnd == 0, \"Not all debt has been wiped\");\n\n            // draw out the remaining ether\n            saiTubContract.free(_cup, inkEnd);\n\n            //convert peth to Weth //this should include the wpratio...\n            saiTubContract.exit(inkEnd);\n\n            // send all remaining eth and weth to sender.\n            require(\n                daiContract.transfer(\n                    msg.sender,\n                    daiContract.balanceOf(address(this))\n                ),\n                \"Dai transfer tailed\"\n            );\n            require(\n                wethContract.transfer(\n                    msg.sender,\n                    wethContract.balanceOf(address(this))\n                ),\n                \"Weth transfer failed\"\n            );\n\n        }\n    }\n\n}\n",
  "sourcePath": "/Users/chris/Projects/DaiDaddy/contracts/Unwinder.sol",
  "compiler": {
    "name": "solc",
    "version": "0.5.7+commit.6da8b019.Emscripten.clang"
  },
  "schemaVersion": "3.0.16",
  "updatedAt": "2019-10-28T11:38:22.190Z",
  "devdoc": {
    "methods": {}
  },
  "userdoc": {
    "methods": {}
  }
}