{
  "contractName": "Unwinder",
  "abi": [
    {
      "constant": true,
      "inputs": [],
      "name": "daiContract",
      "outputs": [
        {
          "name": "",
          "type": "address"
        }
      ],
      "payable": false,
      "stateMutability": "view",
      "type": "function"
    },
    {
      "constant": true,
      "inputs": [],
      "name": "kyberNetworkProxyContract",
      "outputs": [
        {
          "name": "",
          "type": "address"
        }
      ],
      "payable": false,
      "stateMutability": "view",
      "type": "function"
    },
    {
      "constant": true,
      "inputs": [],
      "name": "saiTubContract",
      "outputs": [
        {
          "name": "",
          "type": "address"
        }
      ],
      "payable": false,
      "stateMutability": "view",
      "type": "function"
    },
    {
      "constant": true,
      "inputs": [
        {
          "name": "",
          "type": "address"
        }
      ],
      "name": "cupOwners",
      "outputs": [
        {
          "name": "",
          "type": "bytes32"
        }
      ],
      "payable": false,
      "stateMutability": "view",
      "type": "function"
    },
    {
      "constant": true,
      "inputs": [],
      "name": "medianizerContract",
      "outputs": [
        {
          "name": "",
          "type": "address"
        }
      ],
      "payable": false,
      "stateMutability": "view",
      "type": "function"
    },
    {
      "inputs": [
        {
          "name": "_saiTubAddress",
          "type": "address"
        },
        {
          "name": "_medianizerAddress",
          "type": "address"
        },
        {
          "name": "_KyberNetworkProxyAddress",
          "type": "address"
        },
        {
          "name": "_daiTokenAddress",
          "type": "address"
        }
      ],
      "payable": false,
      "stateMutability": "nonpayable",
      "type": "constructor"
    },
    {
      "constant": true,
      "inputs": [
        {
          "name": "a",
          "type": "uint256"
        },
        {
          "name": "m",
          "type": "uint256"
        }
      ],
      "name": "ceil",
      "outputs": [
        {
          "name": "",
          "type": "uint256"
        }
      ],
      "payable": false,
      "stateMutability": "pure",
      "type": "function"
    },
    {
      "constant": true,
      "inputs": [
        {
          "name": "ink",
          "type": "uint256"
        },
        {
          "name": "art",
          "type": "uint256"
        },
        {
          "name": "etherPrice",
          "type": "uint256"
        },
        {
          "name": "wpRatio",
          "type": "uint256"
        }
      ],
      "name": "collateralizationRatio",
      "outputs": [
        {
          "name": "",
          "type": "uint256"
        }
      ],
      "payable": false,
      "stateMutability": "pure",
      "type": "function"
    },
    {
      "constant": true,
      "inputs": [
        {
          "name": "cr",
          "type": "uint256"
        }
      ],
      "name": "unwindsNeeded",
      "outputs": [
        {
          "name": "",
          "type": "uint256"
        }
      ],
      "payable": false,
      "stateMutability": "pure",
      "type": "function"
    },
    {
      "constant": true,
      "inputs": [
        {
          "name": "ink",
          "type": "uint256"
        },
        {
          "name": "art",
          "type": "uint256"
        },
        {
          "name": "etherPrice",
          "type": "uint256"
        },
        {
          "name": "wpRatio",
          "type": "uint256"
        }
      ],
      "name": "freeableCollateral",
      "outputs": [
        {
          "name": "",
          "type": "uint256"
        }
      ],
      "payable": false,
      "stateMutability": "view",
      "type": "function"
    },
    {
      "constant": true,
      "inputs": [
        {
          "name": "_etherToSell",
          "type": "uint256"
        }
      ],
      "name": "ethToDaiGetKyberPrice",
      "outputs": [
        {
          "name": "",
          "type": "uint256"
        },
        {
          "name": "",
          "type": "uint256"
        }
      ],
      "payable": false,
      "stateMutability": "view",
      "type": "function"
    },
    {
      "constant": false,
      "inputs": [
        {
          "name": "_cup",
          "type": "bytes32"
        }
      ],
      "name": "proveOwnershipOfCDP",
      "outputs": [],
      "payable": false,
      "stateMutability": "nonpayable",
      "type": "function"
    },
    {
      "constant": true,
      "inputs": [
        {
          "name": "srcToken",
          "type": "address"
        },
        {
          "name": "srcQty",
          "type": "uint256"
        },
        {
          "name": "destToken",
          "type": "address"
        }
      ],
      "name": "getConversionRates",
      "outputs": [
        {
          "name": "",
          "type": "uint256"
        },
        {
          "name": "",
          "type": "uint256"
        }
      ],
      "payable": false,
      "stateMutability": "view",
      "type": "function"
    },
    {
      "constant": false,
      "inputs": [
        {
          "name": "srcToken",
          "type": "address"
        },
        {
          "name": "srcQty",
          "type": "uint256"
        },
        {
          "name": "destToken",
          "type": "address"
        },
        {
          "name": "destAddress",
          "type": "address"
        },
        {
          "name": "maxDestAmount",
          "type": "uint256"
        }
      ],
      "name": "executeSwap",
      "outputs": [],
      "payable": false,
      "stateMutability": "nonpayable",
      "type": "function"
    }
  ],
  "bytecode": "0x60806040526714f498ffead7000060005534801561001c57600080fd5b506040516080806113988339810180604052608081101561003c57600080fd5b810190808051906020019092919080519060200190929190805190602001909291908051906020019092919050505083600160006101000a81548173ffffffffffffffffffffffffffffffffffffffff021916908373ffffffffffffffffffffffffffffffffffffffff16021790555082600260006101000a81548173ffffffffffffffffffffffffffffffffffffffff021916908373ffffffffffffffffffffffffffffffffffffffff16021790555081600360006101000a81548173ffffffffffffffffffffffffffffffffffffffff021916908373ffffffffffffffffffffffffffffffffffffffff16021790555080600460006101000a81548173ffffffffffffffffffffffffffffffffffffffff021916908373ffffffffffffffffffffffffffffffffffffffff16021790555050505050611216806101826000396000f3fe608060405234801561001057600080fd5b50600436106100cf5760003560e01c80638587be6e1161008c578063becad59511610066578063becad595146103f6578063e52939731461044e578063f2b704f914610490578063fa24d141146104f0576100cf565b80638587be6e1461030057806397a8d81d1461034c578063b967e9c114610396576100cf565b80630aea8188146100d45780632ce8b9131461015d57806339261d0f146101a75780634019693a146101d5578063685b2bcc1461021e578063785250da146102b6575b600080fd5b610140600480360360608110156100ea57600080fd5b81019080803573ffffffffffffffffffffffffffffffffffffffff16906020019092919080359060200190929190803573ffffffffffffffffffffffffffffffffffffffff16906020019092919050505061053a565b604051808381526020018281526020019250505060405180910390f35b610165610668565b604051808273ffffffffffffffffffffffffffffffffffffffff1673ffffffffffffffffffffffffffffffffffffffff16815260200191505060405180910390f35b6101d3600480360360208110156101bd57600080fd5b810190808035906020019092919050505061068e565b005b610201600480360360208110156101eb57600080fd5b810190808035906020019092919050505061082d565b604051808381526020018281526020019250505060405180910390f35b6102b4600480360360a081101561023457600080fd5b81019080803573ffffffffffffffffffffffffffffffffffffffff16906020019092919080359060200190929190803573ffffffffffffffffffffffffffffffffffffffff169060200190929190803573ffffffffffffffffffffffffffffffffffffffff1690602001909291908035906020019092919050505061098e565b005b6102be61100c565b604051808273ffffffffffffffffffffffffffffffffffffffff1673ffffffffffffffffffffffffffffffffffffffff16815260200191505060405180910390f35b6103366004803603604081101561031657600080fd5b810190808035906020019092919080359060200190929190505050611032565b6040518082815260200191505060405180910390f35b61035461104d565b604051808273ffffffffffffffffffffffffffffffffffffffff1673ffffffffffffffffffffffffffffffffffffffff16815260200191505060405180910390f35b6103e0600480360360808110156103ac57600080fd5b8101908080359060200190929190803590602001909291908035906020019092919080359060200190929190505050611073565b6040518082815260200191505060405180910390f35b6104386004803603602081101561040c57600080fd5b81019080803573ffffffffffffffffffffffffffffffffffffffff1690602001909291905050506110a2565b6040518082815260200191505060405180910390f35b61047a6004803603602081101561046457600080fd5b81019080803590602001909291905050506110ba565b6040518082815260200191505060405180910390f35b6104da600480360360808110156104a657600080fd5b8101908080359060200190929190803590602001909291908035906020019092919080359060200190929190505050611110565b6040518082815260200191505060405180910390f35b6104f8611139565b604051808273ffffffffffffffffffffffffffffffffffffffff1673ffffffffffffffffffffffffffffffffffffffff16815260200191505060405180910390f35b600080600360009054906101000a900473ffffffffffffffffffffffffffffffffffffffff1673ffffffffffffffffffffffffffffffffffffffff1663809a9e558685876040518463ffffffff1660e01b8152600401808473ffffffffffffffffffffffffffffffffffffffff1673ffffffffffffffffffffffffffffffffffffffff1681526020018373ffffffffffffffffffffffffffffffffffffffff1673ffffffffffffffffffffffffffffffffffffffff1681526020018281526020019350505050604080518083038186803b15801561061757600080fd5b505afa15801561062b573d6000803e3d6000fd5b505050506040513d604081101561064157600080fd5b81019080805190602001909291908051906020019092919050505091509150935093915050565b600460009054906101000a900473ffffffffffffffffffffffffffffffffffffffff1681565b6000600160009054906101000a900473ffffffffffffffffffffffffffffffffffffffff1673ffffffffffffffffffffffffffffffffffffffff1663fdac0025836040518263ffffffff1660e01b81526004018082815260200191505060806040518083038186803b15801561070357600080fd5b505afa158015610717573d6000803e3d6000fd5b505050506040513d608081101561072d57600080fd5b810190808051906020019092919080519060200190929190805190602001909291908051906020019092919050505050505090503373ffffffffffffffffffffffffffffffffffffffff168173ffffffffffffffffffffffffffffffffffffffff16146107e5576040517f08c379a000000000000000000000000000000000000000000000000000000000815260040180806020018281038252603581526020018061118c6035913960400191505060405180910390fd5b81600560003373ffffffffffffffffffffffffffffffffffffffff1673ffffffffffffffffffffffffffffffffffffffff168152602001908152602001600020819055505050565b600080600360009054906101000a900473ffffffffffffffffffffffffffffffffffffffff1673ffffffffffffffffffffffffffffffffffffffff1663809a9e5573eeeeeeeeeeeeeeeeeeeeeeeeeeeeeeeeeeeeeeee600460009054906101000a900473ffffffffffffffffffffffffffffffffffffffff16866040518463ffffffff1660e01b8152600401808473ffffffffffffffffffffffffffffffffffffffff1673ffffffffffffffffffffffffffffffffffffffff1681526020018373ffffffffffffffffffffffffffffffffffffffff1673ffffffffffffffffffffffffffffffffffffffff1681526020018281526020019350505050604080518083038186803b15801561094057600080fd5b505afa158015610954573d6000803e3d6000fd5b505050506040513d604081101561096a57600080fd5b81019080805190602001909291908051906020019092919050505091509150915091565b60008573ffffffffffffffffffffffffffffffffffffffff166323b872dd3330886040518463ffffffff1660e01b8152600401808473ffffffffffffffffffffffffffffffffffffffff1673ffffffffffffffffffffffffffffffffffffffff1681526020018373ffffffffffffffffffffffffffffffffffffffff1673ffffffffffffffffffffffffffffffffffffffff1681526020018281526020019350505050602060405180830381600087803b158015610a4b57600080fd5b505af1158015610a5f573d6000803e3d6000fd5b505050506040513d6020811015610a7557600080fd5b8101908080519060200190929190505050610adb576040517f08c379a000000000000000000000000000000000000000000000000000000000815260040180806020018281038252602c815260200180611160602c913960400191505060405180910390fd5b8573ffffffffffffffffffffffffffffffffffffffff1663095ea7b3600360009054906101000a900473ffffffffffffffffffffffffffffffffffffffff1660006040518363ffffffff1660e01b8152600401808373ffffffffffffffffffffffffffffffffffffffff1673ffffffffffffffffffffffffffffffffffffffff16815260200182815260200192505050602060405180830381600087803b158015610b8557600080fd5b505af1158015610b99573d6000803e3d6000fd5b505050506040513d6020811015610baf57600080fd5b8101908080519060200190929190505050610c15576040517f08c379a000000000000000000000000000000000000000000000000000000000815260040180806020018281038252602a8152602001806111c1602a913960400191505060405180910390fd5b8573ffffffffffffffffffffffffffffffffffffffff1663095ea7b3600360009054906101000a900473ffffffffffffffffffffffffffffffffffffffff16876040518363ffffffff1660e01b8152600401808373ffffffffffffffffffffffffffffffffffffffff1673ffffffffffffffffffffffffffffffffffffffff16815260200182815260200192505050602060405180830381600087803b158015610cbe57600080fd5b505af1158015610cd2573d6000803e3d6000fd5b505050506040513d6020811015610ce857600080fd5b8101908080519060200190929190505050610d4e576040517f08c379a000000000000000000000000000000000000000000000000000000000815260040180806020018281038252602a8152602001806111c1602a913960400191505060405180910390fd5b600360009054906101000a900473ffffffffffffffffffffffffffffffffffffffff1673ffffffffffffffffffffffffffffffffffffffff1663809a9e558786886040518463ffffffff1660e01b8152600401808473ffffffffffffffffffffffffffffffffffffffff1673ffffffffffffffffffffffffffffffffffffffff1681526020018373ffffffffffffffffffffffffffffffffffffffff1673ffffffffffffffffffffffffffffffffffffffff1681526020018281526020019350505050604080518083038186803b158015610e2857600080fd5b505afa158015610e3c573d6000803e3d6000fd5b505050506040513d6040811015610e5257600080fd5b8101908080519060200190929190805190602001909291905050505080915050600360009054906101000a900473ffffffffffffffffffffffffffffffffffffffff1673ffffffffffffffffffffffffffffffffffffffff1663cb3c28c787878787878760006040518863ffffffff1660e01b8152600401808873ffffffffffffffffffffffffffffffffffffffff1673ffffffffffffffffffffffffffffffffffffffff1681526020018781526020018673ffffffffffffffffffffffffffffffffffffffff1673ffffffffffffffffffffffffffffffffffffffff1681526020018573ffffffffffffffffffffffffffffffffffffffff1673ffffffffffffffffffffffffffffffffffffffff1681526020018481526020018381526020018273ffffffffffffffffffffffffffffffffffffffff1673ffffffffffffffffffffffffffffffffffffffff168152602001975050505050505050602060405180830381600087803b158015610fc857600080fd5b505af1158015610fdc573d6000803e3d6000fd5b505050506040513d6020811015610ff257600080fd5b810190808051906020019092919050505050505050505050565b600360009054906101000a900473ffffffffffffffffffffffffffffffffffffffff1681565b600081826001848601038161104357fe5b0402905092915050565b600160009054906101000a900473ffffffffffffffffffffffffffffffffffffffff1681565b60008260005485028161108257fe5b04670de0b6b3a76400008387028161109657fe5b04039050949350505050565b60056020528060005260406000206000915090505481565b6000806714d1120d7b16000083036ec097ce7bc90715b34b9f1000000000816110df57fe5b049050612710611100655af3107a400083816110f757fe5b04612710611032565b8161110757fe5b04915050919050565b600080670de0b6b3a7640000850283858802028161112a57fe5b04905080915050949350505050565b600260009054906101000a900473ffffffffffffffffffffffffffffffffffffffff168156fe546f6b656e207472616e7366657220646964206e6f7420636f6d706c657465207375636365737366756c6c794f6e6c79207468652063757272656e74206f776e6572206f6620746865206375702063616e2070726f7665206f776e657273686970546f6b656e206170726f766520646964206e6f7420636f6d706c657465207375636365737366756c6c79a165627a7a72305820c1a98273188973bf159e116bea1172587d08821f5ad1a6c21d03bccc22e8c8060029",
  "source": "pragma solidity ^0.5.7;\n\n/// @title DaiDaddy 2.0: Pay back your debt by unwinding your CDP\n/// @author Chris Maree\n\nimport \"./SaiTubInterface.sol\";\nimport \"./MedianizerInterface.sol\";\nimport \"./KyberNetworkProxyInterface.sol\";\nimport \"./ERC20Interface.sol\";\n\ncontract Unwinder {\n    \n    // constants\n    uint256 safeNoLiquidationRatio = 151 * 10 ** 16;  // a value of 1.51, just above the liquidation amount of a CDP\n    ERC20 constant internal ETH_TOKEN_ADDRESS = ERC20(0x00eeeeeeeeeeeeeeeeeeeeeeeeeeeeeeeeeeeeeeee);\n\n    \n    // contract instances\n    SaiTub public saiTubContract;\n    Medianizer public medianizerContract;\n    KyberNetworkProxy public kyberNetworkProxyContract;\n    ERC20 public daiContract;\n\n    // state variables\n    mapping (address => bytes32)  public  cupOwners; // prove that you owned the CDP before transfering it to DaiDaddy\n\n    constructor(address _saiTubAddress,\n        address _medianizerAddress,\n        address _KyberNetworkProxyAddress,\n        address _daiTokenAddress)\n    public {\n        saiTubContract = SaiTub(_saiTubAddress);\n        medianizerContract = Medianizer(_medianizerAddress);\n        kyberNetworkProxyContract = KyberNetworkProxy(_KyberNetworkProxyAddress);\n        daiContract = ERC20(_daiTokenAddress);\n    }\n\n    // round number a to b decimal points\n    function ceil(uint a, uint m) public pure returns (uint ) {\n        return ((a + m - 1) / m) * m;\n    }\n    \n    // takes in all the information about a CDP and returns the current collateralization ratio scaled *10 ^ 18\n    // uint256  ink             Locked collateral (in Weth)\n    // uint256  art             Outstanding normalised debt(including tax)\n    // uint256  etherPrice      Current ether Price\n    // uint256  wpRatio         Weth to Peth Ratio\n    function collateralizationRatio(uint256 ink, uint256 art, uint256 etherPrice, uint256 wpRatio) public pure returns (uint256) {\n        uint256 cr = (ink * etherPrice * wpRatio) / (art * 10 ** 18);\n        return cr;\n    }\n    \n    // returns an interger representing how many unwinds are needed for a given collateralization ratio. The use of\n    // the ceil function and the scaling is to act as a round up\n    function unwindsNeeded(uint256 cr) public pure returns(uint256){\n        //1.5 here represents the collateralization ratio needed to not get liquidated as a CDP on makerDao\n        uint256 repaymentsNeeded = (1 * 10 ** (18 * 2)) / (cr - 1.5 * 10 ** 18);\n        return ceil(repaymentsNeeded / (10 ** 14), 10000) / 10000;\n    }\n    \n    function freeableCollateral(uint256 ink, uint256 art, uint256 etherPrice, uint256 wpRatio) public view returns (uint256) {\n        return (ink * wpRatio) / (10 ** 18) - (art * safeNoLiquidationRatio) / etherPrice;\n    }\n    \n    // See how much Dai can be gained from trading against keyber for the freed Ether\n    function ethToDaiGetKyberPrice(uint256 _etherToSell) public view returns (uint, uint) {\n        return kyberNetworkProxyContract.getExpectedRate(address(ETH_TOKEN_ADDRESS), address(daiContract), _etherToSell);\n    }\n\n    function proveOwnershipOfCDP(bytes32 _cup) public {\n        (address lad,,,) = saiTubContract.cups(_cup);\n        require(lad == msg.sender, \"Only the current owner of the cup can prove ownership\");\n        cupOwners[msg.sender] = _cup;\n    }\n\n    /**\n     * @dev Gets the conversion rate for the destToken given the srcQty.\n     * @param srcToken source token contract address\n     * @param srcQty amount of source tokens\n     * @param destToken destination token contract address\n     */\n    function getConversionRates(\n        address srcToken,\n        uint srcQty,\n        address destToken\n    ) public\n        view\n        returns (uint, uint)\n    {\n        return kyberNetworkProxyContract.getExpectedRate(srcToken, destToken, srcQty);\n\n    }\n\n    /**\n     * @dev Swap the user's ERC20 token to another ERC20 token/ETH\n     * @param srcToken source token contract address\n     * @param srcQty amount of source tokens\n     * @param destToken destination token contract address\n     * @param destAddress address to send swapped tokens to\n     * @param maxDestAmount address to send swapped tokens to\n     */\n    function executeSwap(\n        address srcToken,\n        uint srcQty,\n        address destToken,\n        address destAddress,\n        uint maxDestAmount\n    ) public {\n        uint minConversionRate;\n\n        // Check that the token transferFrom has succeeded\n        require(ERC20(srcToken).transferFrom(msg.sender, address(this), srcQty), \"Token transfer did not complete successfully\");\n\n        // Mitigate ERC20 Approve front-running attack, by initially setting\n        // allowance to 0\n        require(ERC20(srcToken).approve(address(kyberNetworkProxyContract), 0), \"Token aprove did not complete successfully\");\n\n        // Set the spender's token allowance to tokenQty\n        require(ERC20(srcToken).approve(address(kyberNetworkProxyContract), srcQty),\"Token aprove did not complete successfully\");\n\n        // Get the minimum conversion rate\n        (minConversionRate,) = kyberNetworkProxyContract.getExpectedRate(srcToken, destToken, srcQty);\n\n        // Swap the ERC20 token and send to destAddress\n        kyberNetworkProxyContract.trade(\n            srcToken,\n            srcQty,\n            destToken,\n            destAddress,\n            maxDestAmount,\n            minConversionRate,\n            address(0) //walletId for fee sharing program\n        );\n    }\n}\n\n",
  "sourcePath": "/Users/chris/Projects/DaiDaddy/contracts/Unwinder.sol",
  "compiler": {
    "name": "solc",
    "version": "0.5.7+commit.6da8b019.Emscripten.clang"
  },
  "schemaVersion": "3.0.16",
  "updatedAt": "2019-10-26T15:50:14.402Z",
  "devdoc": {
    "methods": {
      "executeSwap(address,uint256,address,address,uint256)": {
        "details": "Swap the user's ERC20 token to another ERC20 token/ETH",
        "params": {
          "destAddress": "address to send swapped tokens to",
          "destToken": "destination token contract address",
          "maxDestAmount": "address to send swapped tokens to",
          "srcQty": "amount of source tokens",
          "srcToken": "source token contract address"
        }
      },
      "getConversionRates(address,uint256,address)": {
        "details": "Gets the conversion rate for the destToken given the srcQty.",
        "params": {
          "destToken": "destination token contract address",
          "srcQty": "amount of source tokens",
          "srcToken": "source token contract address"
        }
      }
    }
  },
  "userdoc": {
    "methods": {}
  }
}