{
  "contractName": "Unwinder",
  "abi": [
    {
      "constant": true,
      "inputs": [],
      "name": "daiContract",
      "outputs": [
        {
          "name": "",
          "type": "address"
        }
      ],
      "payable": false,
      "stateMutability": "view",
      "type": "function"
    },
    {
      "constant": true,
      "inputs": [],
      "name": "kyberNetworkProxyContract",
      "outputs": [
        {
          "name": "",
          "type": "address"
        }
      ],
      "payable": false,
      "stateMutability": "view",
      "type": "function"
    },
    {
      "constant": true,
      "inputs": [],
      "name": "saiTubContract",
      "outputs": [
        {
          "name": "",
          "type": "address"
        }
      ],
      "payable": false,
      "stateMutability": "view",
      "type": "function"
    },
    {
      "constant": true,
      "inputs": [
        {
          "name": "",
          "type": "address"
        }
      ],
      "name": "cupOwners",
      "outputs": [
        {
          "name": "",
          "type": "bytes32"
        }
      ],
      "payable": false,
      "stateMutability": "view",
      "type": "function"
    },
    {
      "constant": true,
      "inputs": [],
      "name": "medianizerContract",
      "outputs": [
        {
          "name": "",
          "type": "address"
        }
      ],
      "payable": false,
      "stateMutability": "view",
      "type": "function"
    },
    {
      "inputs": [
        {
          "name": "_saiTubAddress",
          "type": "address"
        },
        {
          "name": "_medianizerAddress",
          "type": "address"
        },
        {
          "name": "_KyberNetworkProxyAddress",
          "type": "address"
        },
        {
          "name": "_daiTokenAddress",
          "type": "address"
        }
      ],
      "payable": false,
      "stateMutability": "nonpayable",
      "type": "constructor"
    },
    {
      "constant": true,
      "inputs": [
        {
          "name": "a",
          "type": "uint256"
        },
        {
          "name": "m",
          "type": "uint256"
        }
      ],
      "name": "ceil",
      "outputs": [
        {
          "name": "",
          "type": "uint256"
        }
      ],
      "payable": false,
      "stateMutability": "pure",
      "type": "function"
    },
    {
      "constant": true,
      "inputs": [
        {
          "name": "ink",
          "type": "uint256"
        },
        {
          "name": "art",
          "type": "uint256"
        },
        {
          "name": "etherPrice",
          "type": "uint256"
        },
        {
          "name": "wpRatio",
          "type": "uint256"
        }
      ],
      "name": "collateralizationRatio",
      "outputs": [
        {
          "name": "",
          "type": "uint256"
        }
      ],
      "payable": false,
      "stateMutability": "pure",
      "type": "function"
    },
    {
      "constant": true,
      "inputs": [
        {
          "name": "cr",
          "type": "uint256"
        }
      ],
      "name": "unwindsNeeded",
      "outputs": [
        {
          "name": "",
          "type": "uint256"
        }
      ],
      "payable": false,
      "stateMutability": "pure",
      "type": "function"
    },
    {
      "constant": true,
      "inputs": [
        {
          "name": "ink",
          "type": "uint256"
        },
        {
          "name": "art",
          "type": "uint256"
        },
        {
          "name": "etherPrice",
          "type": "uint256"
        },
        {
          "name": "wpRatio",
          "type": "uint256"
        }
      ],
      "name": "freeableCollateral",
      "outputs": [
        {
          "name": "",
          "type": "uint256"
        }
      ],
      "payable": false,
      "stateMutability": "view",
      "type": "function"
    },
    {
      "constant": true,
      "inputs": [
        {
          "name": "_etherToSell",
          "type": "uint256"
        }
      ],
      "name": "ethToDaiGetKyberPrice",
      "outputs": [
        {
          "name": "",
          "type": "uint256"
        }
      ],
      "payable": false,
      "stateMutability": "view",
      "type": "function"
    },
    {
      "constant": false,
      "inputs": [
        {
          "name": "_cup",
          "type": "bytes32"
        }
      ],
      "name": "proveOwnershipOfCDP",
      "outputs": [],
      "payable": false,
      "stateMutability": "nonpayable",
      "type": "function"
    },
    {
      "constant": false,
      "inputs": [
        {
          "name": "_srcToken",
          "type": "address"
        },
        {
          "name": "_srcQty",
          "type": "uint256"
        },
        {
          "name": "_destToken",
          "type": "address"
        },
        {
          "name": "_destAddress",
          "type": "address"
        },
        {
          "name": "_maxDestAmount",
          "type": "uint256"
        }
      ],
      "name": "executeSwap",
      "outputs": [],
      "payable": false,
      "stateMutability": "nonpayable",
      "type": "function"
    },
    {
      "constant": false,
      "inputs": [
        {
          "name": "_cup",
          "type": "bytes32"
        }
      ],
      "name": "unwindCDP",
      "outputs": [],
      "payable": false,
      "stateMutability": "nonpayable",
      "type": "function"
    }
  ],
  "bytecode": "0x60806040526714f498ffead7000060005534801561001c57600080fd5b5060405160808061146d8339810180604052608081101561003c57600080fd5b810190808051906020019092919080519060200190929190805190602001909291908051906020019092919050505083600160006101000a81548173ffffffffffffffffffffffffffffffffffffffff021916908373ffffffffffffffffffffffffffffffffffffffff16021790555082600260006101000a81548173ffffffffffffffffffffffffffffffffffffffff021916908373ffffffffffffffffffffffffffffffffffffffff16021790555081600360006101000a81548173ffffffffffffffffffffffffffffffffffffffff021916908373ffffffffffffffffffffffffffffffffffffffff16021790555080600460006101000a81548173ffffffffffffffffffffffffffffffffffffffff021916908373ffffffffffffffffffffffffffffffffffffffff160217905550505050506112eb806101826000396000f3fe608060405234801561001057600080fd5b50600436106100cf5760003560e01c80638587be6e1161008c578063becad59511610066578063becad59514610394578063e5293973146103ec578063f2b704f91461042e578063fa24d1411461048e576100cf565b80638587be6e1461029e57806397a8d81d146102ea578063b967e9c114610334576100cf565b806306ef4a51146100d45780632ce8b9131461010257806339261d0f1461014c5780634019693a1461017a578063685b2bcc146101bc578063785250da14610254575b600080fd5b610100600480360360208110156100ea57600080fd5b81019080803590602001909291905050506104d8565b005b61010a6106ca565b604051808273ffffffffffffffffffffffffffffffffffffffff1673ffffffffffffffffffffffffffffffffffffffff16815260200191505060405180910390f35b6101786004803603602081101561016257600080fd5b81019080803590602001909291905050506106f0565b005b6101a66004803603602081101561019057600080fd5b810190808035906020019092919050505061088f565b6040518082815260200191505060405180910390f35b610252600480360360a08110156101d257600080fd5b81019080803573ffffffffffffffffffffffffffffffffffffffff16906020019092919080359060200190929190803573ffffffffffffffffffffffffffffffffffffffff169060200190929190803573ffffffffffffffffffffffffffffffffffffffff169060200190929190803590602001909291905050506109f3565b005b61025c611071565b604051808273ffffffffffffffffffffffffffffffffffffffff1673ffffffffffffffffffffffffffffffffffffffff16815260200191505060405180910390f35b6102d4600480360360408110156102b457600080fd5b810190808035906020019092919080359060200190929190505050611097565b6040518082815260200191505060405180910390f35b6102f26110b2565b604051808273ffffffffffffffffffffffffffffffffffffffff1673ffffffffffffffffffffffffffffffffffffffff16815260200191505060405180910390f35b61037e6004803603608081101561034a57600080fd5b81019080803590602001909291908035906020019092919080359060200190929190803590602001909291905050506110d8565b6040518082815260200191505060405180910390f35b6103d6600480360360208110156103aa57600080fd5b81019080803573ffffffffffffffffffffffffffffffffffffffff169060200190929190505050611107565b6040518082815260200191505060405180910390f35b6104186004803603602081101561040257600080fd5b810190808035906020019092919050505061111f565b6040518082815260200191505060405180910390f35b6104786004803603608081101561044457600080fd5b8101908080359060200190929190803590602001909291908035906020019092919080359060200190929190505050611175565b6040518082815260200191505060405180910390f35b61049661119e565b604051808273ffffffffffffffffffffffffffffffffffffffff1673ffffffffffffffffffffffffffffffffffffffff16815260200191505060405180910390f35b6000600160009054906101000a900473ffffffffffffffffffffffffffffffffffffffff1673ffffffffffffffffffffffffffffffffffffffff1663fdac0025836040518263ffffffff1660e01b81526004018082815260200191505060806040518083038186803b15801561054d57600080fd5b505afa158015610561573d6000803e3d6000fd5b505050506040513d608081101561057757600080fd5b810190808051906020019092919080519060200190929190805190602001909291908051906020019092919050505050505090503073ffffffffffffffffffffffffffffffffffffffff168173ffffffffffffffffffffffffffffffffffffffff161461062f576040517f08c379a000000000000000000000000000000000000000000000000000000000815260040180806020018281038252603e815260200180611258603e913960400191505060405180910390fd5b81600560003373ffffffffffffffffffffffffffffffffffffffff1673ffffffffffffffffffffffffffffffffffffffff16815260200190815260200160002054146106c6576040517f08c379a00000000000000000000000000000000000000000000000000000000081526004018080602001828103825260328152602001806111f16032913960400191505060405180910390fd5b5050565b600460009054906101000a900473ffffffffffffffffffffffffffffffffffffffff1681565b6000600160009054906101000a900473ffffffffffffffffffffffffffffffffffffffff1673ffffffffffffffffffffffffffffffffffffffff1663fdac0025836040518263ffffffff1660e01b81526004018082815260200191505060806040518083038186803b15801561076557600080fd5b505afa158015610779573d6000803e3d6000fd5b505050506040513d608081101561078f57600080fd5b810190808051906020019092919080519060200190929190805190602001909291908051906020019092919050505050505090503373ffffffffffffffffffffffffffffffffffffffff168173ffffffffffffffffffffffffffffffffffffffff1614610847576040517f08c379a00000000000000000000000000000000000000000000000000000000081526004018080602001828103825260358152602001806112236035913960400191505060405180910390fd5b81600560003373ffffffffffffffffffffffffffffffffffffffff1673ffffffffffffffffffffffffffffffffffffffff168152602001908152602001600020819055505050565b600080600360009054906101000a900473ffffffffffffffffffffffffffffffffffffffff1673ffffffffffffffffffffffffffffffffffffffff1663809a9e5573eeeeeeeeeeeeeeeeeeeeeeeeeeeeeeeeeeeeeeee600460009054906101000a900473ffffffffffffffffffffffffffffffffffffffff16866040518463ffffffff1660e01b8152600401808473ffffffffffffffffffffffffffffffffffffffff1673ffffffffffffffffffffffffffffffffffffffff1681526020018373ffffffffffffffffffffffffffffffffffffffff1673ffffffffffffffffffffffffffffffffffffffff1681526020018281526020019350505050604080518083038186803b1580156109a257600080fd5b505afa1580156109b6573d6000803e3d6000fd5b505050506040513d60408110156109cc57600080fd5b81019080805190602001909291908051906020019092919050505050905080915050919050565b60008573ffffffffffffffffffffffffffffffffffffffff166323b872dd3330886040518463ffffffff1660e01b8152600401808473ffffffffffffffffffffffffffffffffffffffff1673ffffffffffffffffffffffffffffffffffffffff1681526020018373ffffffffffffffffffffffffffffffffffffffff1673ffffffffffffffffffffffffffffffffffffffff1681526020018281526020019350505050602060405180830381600087803b158015610ab057600080fd5b505af1158015610ac4573d6000803e3d6000fd5b505050506040513d6020811015610ada57600080fd5b8101908080519060200190929190505050610b40576040517f08c379a000000000000000000000000000000000000000000000000000000000815260040180806020018281038252602c8152602001806111c5602c913960400191505060405180910390fd5b8573ffffffffffffffffffffffffffffffffffffffff1663095ea7b3600360009054906101000a900473ffffffffffffffffffffffffffffffffffffffff1660006040518363ffffffff1660e01b8152600401808373ffffffffffffffffffffffffffffffffffffffff1673ffffffffffffffffffffffffffffffffffffffff16815260200182815260200192505050602060405180830381600087803b158015610bea57600080fd5b505af1158015610bfe573d6000803e3d6000fd5b505050506040513d6020811015610c1457600080fd5b8101908080519060200190929190505050610c7a576040517f08c379a000000000000000000000000000000000000000000000000000000000815260040180806020018281038252602a815260200180611296602a913960400191505060405180910390fd5b8573ffffffffffffffffffffffffffffffffffffffff1663095ea7b3600360009054906101000a900473ffffffffffffffffffffffffffffffffffffffff16876040518363ffffffff1660e01b8152600401808373ffffffffffffffffffffffffffffffffffffffff1673ffffffffffffffffffffffffffffffffffffffff16815260200182815260200192505050602060405180830381600087803b158015610d2357600080fd5b505af1158015610d37573d6000803e3d6000fd5b505050506040513d6020811015610d4d57600080fd5b8101908080519060200190929190505050610db3576040517f08c379a000000000000000000000000000000000000000000000000000000000815260040180806020018281038252602a815260200180611296602a913960400191505060405180910390fd5b600360009054906101000a900473ffffffffffffffffffffffffffffffffffffffff1673ffffffffffffffffffffffffffffffffffffffff1663809a9e558786886040518463ffffffff1660e01b8152600401808473ffffffffffffffffffffffffffffffffffffffff1673ffffffffffffffffffffffffffffffffffffffff1681526020018373ffffffffffffffffffffffffffffffffffffffff1673ffffffffffffffffffffffffffffffffffffffff1681526020018281526020019350505050604080518083038186803b158015610e8d57600080fd5b505afa158015610ea1573d6000803e3d6000fd5b505050506040513d6040811015610eb757600080fd5b8101908080519060200190929190805190602001909291905050505080915050600360009054906101000a900473ffffffffffffffffffffffffffffffffffffffff1673ffffffffffffffffffffffffffffffffffffffff1663cb3c28c787878787878760006040518863ffffffff1660e01b8152600401808873ffffffffffffffffffffffffffffffffffffffff1673ffffffffffffffffffffffffffffffffffffffff1681526020018781526020018673ffffffffffffffffffffffffffffffffffffffff1673ffffffffffffffffffffffffffffffffffffffff1681526020018573ffffffffffffffffffffffffffffffffffffffff1673ffffffffffffffffffffffffffffffffffffffff1681526020018481526020018381526020018273ffffffffffffffffffffffffffffffffffffffff1673ffffffffffffffffffffffffffffffffffffffff168152602001975050505050505050602060405180830381600087803b15801561102d57600080fd5b505af1158015611041573d6000803e3d6000fd5b505050506040513d602081101561105757600080fd5b810190808051906020019092919050505050505050505050565b600360009054906101000a900473ffffffffffffffffffffffffffffffffffffffff1681565b60008182600184860103816110a857fe5b0402905092915050565b600160009054906101000a900473ffffffffffffffffffffffffffffffffffffffff1681565b6000826000548502816110e757fe5b04670de0b6b3a7640000838702816110fb57fe5b04039050949350505050565b60056020528060005260406000206000915090505481565b6000806714d1120d7b16000083036ec097ce7bc90715b34b9f10000000008161114457fe5b049050612710611165655af3107a4000838161115c57fe5b04612710611097565b8161116c57fe5b04915050919050565b600080670de0b6b3a7640000850283858802028161118f57fe5b04905080915050949350505050565b600260009054906101000a900473ffffffffffffffffffffffffffffffffffffffff168156fe546f6b656e207472616e7366657220646964206e6f7420636f6d706c657465207375636365737366756c6c7943616e206f6e6c7920756e77696e64204344507320746861742077657265206f776e6564206279207468652073656c6c65724f6e6c79207468652063757272656e74206f776e6572206f6620746865206375702063616e2070726f7665206f776e65727368697043616e206f6e6c7920756e77696e64204344507320746861742068617665206265656e207472616e73666572656420746f2074686520556e77696e646572546f6b656e206170726f766520646964206e6f7420636f6d706c657465207375636365737366756c6c79a165627a7a72305820ce163a2ce7b53eed7ea63b07c5ea656cddd78253b20b5f2e1ebffd4859d9cd980029",
  "source": "pragma solidity ^0.5.7;\n\n/// @title DaiDaddy 2.0: Pay back your debt by unwinding your CDP\n/// @author Chris Maree\n\nimport \"./SaiTubInterface.sol\";\nimport \"./MedianizerInterface.sol\";\nimport \"./KyberNetworkProxyInterface.sol\";\nimport \"./ERC20Interface.sol\";\n\ncontract Unwinder {\n    // constants\n    uint256 safeNoLiquidationRatio = 151 * 10 ** 16;  // a value of 1.51, just above the liquidation amount of a CDP\n    ERC20 constant internal ETH_TOKEN_ADDRESS = ERC20(0x00eeeeeeeeeeeeeeeeeeeeeeeeeeeeeeeeeeeeeeee);\n\n    // contract instances\n    SaiTub public saiTubContract;\n    Medianizer public medianizerContract;\n    KyberNetworkProxy public kyberNetworkProxyContract;\n    ERC20 public daiContract;\n\n    // state variables\n    mapping (address => bytes32)  public  cupOwners; // prove that you owned the CDP before transfering it to DaiDaddy\n\n    constructor(address _saiTubAddress,\n        address _medianizerAddress,\n        address _KyberNetworkProxyAddress,\n        address _daiTokenAddress)\n    public {\n        saiTubContract = SaiTub(_saiTubAddress);\n        medianizerContract = Medianizer(_medianizerAddress);\n        kyberNetworkProxyContract = KyberNetworkProxy(_KyberNetworkProxyAddress);\n        daiContract = ERC20(_daiTokenAddress);\n    }\n\n    // round number a to b decimal points\n    function ceil(uint a, uint m) public pure returns (uint ) {\n        return ((a + m - 1) / m) * m;\n    }\n\n    // takes in all the information about a CDP and returns the current collateralization ratio scaled *10 ^ 18\n    // uint256  ink             Locked collateral (in Weth)\n    // uint256  art             Outstanding normalised debt(including tax)\n    // uint256  etherPrice      Current ether Price\n    // uint256  wpRatio         Weth to Peth Ratio\n    function collateralizationRatio(uint256 ink, uint256 art, uint256 etherPrice, uint256 wpRatio) public pure returns (uint256) {\n        uint256 cr = (ink * etherPrice * wpRatio) / (art * 10 ** 18);\n        return cr;\n    }\n    \n    // returns an interger representing how many unwinds are needed for a given collateralization ratio. The use of\n    // the ceil function and the scaling is to act as a round up\n    function unwindsNeeded(uint256 cr) public pure returns(uint256){\n        //1.5 here represents the collateralization ratio needed to not get liquidated as a CDP on makerDao\n        uint256 repaymentsNeeded = (1 * 10 ** (18 * 2)) / (cr - 1.5 * 10 ** 18);\n        return ceil(repaymentsNeeded / (10 ** 14), 10000) / 10000;\n    }\n    \n    function freeableCollateral(uint256 ink, uint256 art, uint256 etherPrice, uint256 wpRatio) public view returns (uint256) {\n        return (ink * wpRatio) / (10 ** 18) - (art * safeNoLiquidationRatio) / etherPrice;\n    }\n    \n    // See how much Dai can be gained from trading against keyber for the freed Ether\n    function ethToDaiGetKyberPrice(uint256 _etherToSell) public view returns (uint) {\n        (uint price,) = kyberNetworkProxyContract.getExpectedRate(address(ETH_TOKEN_ADDRESS), address(daiContract), _etherToSell);\n        return price;\n    }\n\n    function proveOwnershipOfCDP(bytes32 _cup) public {\n        (address lad,,,) = saiTubContract.cups(_cup);\n        require(lad == msg.sender, \"Only the current owner of the cup can prove ownership\");\n        cupOwners[msg.sender] = _cup;\n    }\n\n    /**\n     * @dev Swap the user's ERC20 token to another ERC20 token/ETH\n     * @param _srcToken source token contract address\n     * @param _srcQty amount of source tokens\n     * @param _destToken destination token contract address\n     * @param _destAddress address to send swapped tokens to\n     * @param _maxDestAmount address to send swapped tokens to\n     */\n    function executeSwap(\n        address _srcToken,\n        uint _srcQty,\n        address _destToken,\n        address _destAddress,\n        uint _maxDestAmount\n    ) public {\n        uint _minConversionRate;\n\n        // Check that the token transferFrom has succeeded\n        require(ERC20(_srcToken).transferFrom(msg.sender, address(this), _srcQty), \"Token transfer did not complete successfully\");\n\n        // Mitigate ERC20 Approve front-running attack, by initially setting\n        // allowance to 0\n        require(ERC20(_srcToken).approve(address(kyberNetworkProxyContract), 0), \"Token aprove did not complete successfully\");\n\n        // Set the spender's token allowance to tokenQty\n        require(ERC20(_srcToken).approve(address(kyberNetworkProxyContract), _srcQty),\"Token aprove did not complete successfully\");\n\n        // Get the minimum conversion rate\n        (_minConversionRate,) = kyberNetworkProxyContract.getExpectedRate(_srcToken, _destToken, _srcQty);\n\n        // Swap the ERC20 token and send to _destAddress\n        kyberNetworkProxyContract.trade(\n            _srcToken,\n            _srcQty,\n            _destToken,\n            _destAddress,\n            _maxDestAmount,\n            _minConversionRate,\n            address(0) //walletId for fee sharing program\n        );\n    }\n\n    function unwindCDP(bytes32 _cup) public {\n        (address lad,,,) = saiTubContract.cups(_cup);\n        require(lad == address(this), \"Can only unwind CDPs that have been transfered to the Unwinder\");\n        require(cupOwners[msg.sender] == _cup, \"Can only unwind CDPs that were owned by the seller\");\n    }\n}\n\n",
  "sourcePath": "/Users/chris/Projects/DaiDaddy/contracts/Unwinder.sol",
  "compiler": {
    "name": "solc",
    "version": "0.5.7+commit.6da8b019.Emscripten.clang"
  },
  "schemaVersion": "3.0.16",
  "updatedAt": "2019-10-26T20:50:30.159Z",
  "devdoc": {
    "methods": {
      "executeSwap(address,uint256,address,address,uint256)": {
        "details": "Swap the user's ERC20 token to another ERC20 token/ETH",
        "params": {
          "_destAddress": "address to send swapped tokens to",
          "_destToken": "destination token contract address",
          "_maxDestAmount": "address to send swapped tokens to",
          "_srcQty": "amount of source tokens",
          "_srcToken": "source token contract address"
        }
      }
    }
  },
  "userdoc": {
    "methods": {}
  }
}